{
  "contractName": "Contract",
  "abi": [
    {
      "inputs": [],
      "payable": false,
      "stateMutability": "nonpayable",
      "type": "constructor"
    },
    {
      "constant": true,
      "inputs": [
        {
          "internalType": "uint256",
          "name": "",
          "type": "uint256"
        }
      ],
      "name": "Dr_ids",
      "outputs": [
        {
          "internalType": "address",
          "name": "",
          "type": "address"
        }
      ],
      "payable": false,
      "stateMutability": "view",
      "type": "function"
    },
    {
      "constant": true,
      "inputs": [
        {
          "internalType": "uint256",
          "name": "",
          "type": "uint256"
        }
      ],
      "name": "Patient_ids",
      "outputs": [
        {
          "internalType": "address",
          "name": "",
          "type": "address"
        }
      ],
      "payable": false,
      "stateMutability": "view",
      "type": "function"
    },
    {
      "constant": true,
      "inputs": [
        {
          "internalType": "uint256",
          "name": "",
          "type": "uint256"
        }
      ],
      "name": "RecordHashes",
      "outputs": [
        {
          "internalType": "string",
          "name": "",
          "type": "string"
        }
      ],
      "payable": false,
      "stateMutability": "view",
      "type": "function"
    },
    {
      "constant": true,
      "inputs": [],
      "name": "getAdmin",
      "outputs": [
        {
          "internalType": "address",
          "name": "",
          "type": "address"
        }
      ],
      "payable": false,
      "stateMutability": "view",
      "type": "function"
    },
    {
      "constant": false,
      "inputs": [
        {
          "internalType": "address",
          "name": "dr_id",
          "type": "address"
        },
        {
          "internalType": "string",
          "name": "_drInfo_hash",
          "type": "string"
        }
      ],
      "name": "addDrInfo",
      "outputs": [],
      "payable": false,
      "stateMutability": "nonpayable",
      "type": "function"
    },
    {
      "constant": false,
      "inputs": [
        {
          "internalType": "address",
          "name": "_newdr",
          "type": "address"
        }
      ],
      "name": "addDoctor",
      "outputs": [],
      "payable": false,
      "stateMutability": "nonpayable",
      "type": "function"
    },
    {
      "constant": false,
      "inputs": [
        {
          "internalType": "address",
          "name": "_accid",
          "type": "address"
        }
      ],
      "name": "delDr",
      "outputs": [],
      "payable": false,
      "stateMutability": "nonpayable",
      "type": "function"
    },
    {
      "constant": true,
      "inputs": [],
      "name": "get_drtid",
      "outputs": [
        {
          "internalType": "address",
          "name": "",
          "type": "address"
        }
      ],
      "payable": false,
      "stateMutability": "view",
      "type": "function"
    },
    {
      "constant": false,
      "inputs": [
        {
          "internalType": "address",
          "name": "_id",
          "type": "address"
        }
      ],
      "name": "search",
      "outputs": [],
      "payable": false,
      "stateMutability": "nonpayable",
      "type": "function"
    },
    {
      "constant": true,
      "inputs": [],
      "name": "getDrInfo",
      "outputs": [
        {
          "internalType": "string",
          "name": "",
          "type": "string"
        }
      ],
      "payable": false,
      "stateMutability": "view",
      "type": "function"
    },
    {
      "constant": true,
      "inputs": [
        {
          "internalType": "address",
          "name": "_id",
          "type": "address"
        }
      ],
      "name": "getDr",
      "outputs": [
        {
          "internalType": "string",
          "name": "",
          "type": "string"
        }
      ],
      "payable": false,
      "stateMutability": "view",
      "type": "function"
    },
    {
      "constant": true,
      "inputs": [
        {
          "internalType": "address",
          "name": "id",
          "type": "address"
        }
      ],
      "name": "isDr",
      "outputs": [
        {
          "internalType": "string",
          "name": "",
          "type": "string"
        }
      ],
      "payable": false,
      "stateMutability": "view",
      "type": "function"
    },
    {
      "constant": true,
      "inputs": [],
      "name": "getAllDrs",
      "outputs": [
        {
          "internalType": "address",
          "name": "",
          "type": "address"
        }
      ],
      "payable": false,
      "stateMutability": "view",
      "type": "function"
    },
    {
      "constant": true,
      "inputs": [
        {
          "internalType": "address",
          "name": "id",
          "type": "address"
        }
      ],
      "name": "isPat",
      "outputs": [
        {
          "internalType": "string",
          "name": "",
          "type": "string"
        }
      ],
      "payable": false,
      "stateMutability": "view",
      "type": "function"
    },
    {
      "constant": false,
      "inputs": [
        {
          "internalType": "address",
          "name": "_newpatient",
          "type": "address"
        }
      ],
      "name": "addPatient",
      "outputs": [],
      "payable": false,
      "stateMutability": "nonpayable",
      "type": "function"
    },
    {
      "constant": false,
      "inputs": [
        {
          "internalType": "address",
          "name": "_patid",
          "type": "address"
        }
      ],
      "name": "addRec",
      "outputs": [],
      "payable": false,
      "stateMutability": "nonpayable",
      "type": "function"
    },
    {
      "constant": false,
      "inputs": [
        {
          "internalType": "address",
          "name": "_patid",
          "type": "address"
        }
      ],
      "name": "viewPatRec",
      "outputs": [],
      "payable": false,
      "stateMutability": "nonpayable",
      "type": "function"
    },
    {
      "constant": false,
      "inputs": [
        {
          "internalType": "address",
          "name": "_accid",
          "type": "address"
        }
      ],
      "name": "delPat",
      "outputs": [],
      "payable": false,
      "stateMutability": "nonpayable",
      "type": "function"
    },
    {
      "constant": true,
      "inputs": [],
      "name": "get",
      "outputs": [
        {
          "internalType": "address",
          "name": "",
          "type": "address"
        }
      ],
      "payable": false,
      "stateMutability": "view",
      "type": "function"
    },
    {
      "constant": true,
      "inputs": [],
      "name": "get_patid",
      "outputs": [
        {
          "internalType": "address",
          "name": "",
          "type": "address"
        }
      ],
      "payable": false,
      "stateMutability": "view",
      "type": "function"
    },
    {
      "constant": true,
      "inputs": [
        {
          "internalType": "address",
          "name": "iD",
          "type": "address"
        }
      ],
      "name": "getPatInfo",
      "outputs": [
        {
          "internalType": "string",
          "name": "",
          "type": "string"
        }
      ],
      "payable": false,
      "stateMutability": "view",
      "type": "function"
    },
    {
      "constant": false,
      "inputs": [
        {
          "internalType": "address",
          "name": "pat_id",
          "type": "address"
        },
        {
          "internalType": "string",
          "name": "_patInfoHash",
          "type": "string"
        }
      ],
      "name": "addPatInfo",
      "outputs": [],
      "payable": false,
      "stateMutability": "nonpayable",
      "type": "function"
    },
    {
      "constant": false,
      "inputs": [
        {
          "internalType": "string",
          "name": "_recHash",
          "type": "string"
        },
        {
          "internalType": "address",
          "name": "_pat_id",
          "type": "address"
        }
      ],
      "name": "addMedRecord",
      "outputs": [],
      "payable": false,
      "stateMutability": "nonpayable",
      "type": "function"
    },
    {
      "constant": true,
      "inputs": [],
      "name": "viewMedRec",
      "outputs": [
        {
          "internalType": "string",
          "name": "",
          "type": "string"
        }
      ],
      "payable": false,
      "stateMutability": "view",
      "type": "function"
    }
  ],
  "bytecode": "0x60806040523480156200001157600080fd5b5033600a60006101000a81548173ffffffffffffffffffffffffffffffffffffffff021916908373ffffffffffffffffffffffffffffffffffffffff16021790555062000090600a60009054906101000a900473ffffffffffffffffffffffffffffffffffffffff1660006200009660201b62001d7a1790919060201c565b6200025a565b620000a882826200017a60201b60201c565b156200011c576040517f08c379a000000000000000000000000000000000000000000000000000000000815260040180806020018281038252601f8152602001807f526f6c65733a206163636f756e7420616c72656164792068617320726f6c650081525060200191505060405180910390fd5b60018260000160008373ffffffffffffffffffffffffffffffffffffffff1673ffffffffffffffffffffffffffffffffffffffff16815260200190815260200160002060006101000a81548160ff0219169083151502179055505050565b60008073ffffffffffffffffffffffffffffffffffffffff168273ffffffffffffffffffffffffffffffffffffffff16141562000203576040517f08c379a0000000000000000000000000000000000000000000000000000000008152600401808060200182810382526022815260200180620022996022913960400191505060405180910390fd5b8260000160008373ffffffffffffffffffffffffffffffffffffffff1673ffffffffffffffffffffffffffffffffffffffff16815260200190815260200160002060009054906101000a900460ff16905092915050565b61202f806200026a6000396000f3fe608060405234801561001057600080fd5b50600436106101585760003560e01c80636d4ce63c116100c3578063c979783f1161007c578063c979783f14610968578063cc572914146109d6578063d2fce6cc14610a93578063d4fd45c414610ad7578063ddf8f98b14610b94578063f1a1d7d514610bde57610158565b80636d4ce63c146106935780636e9960c3146106dd578063720d5b4b1461072757806392bed5ce146107e45780639fd0677414610867578063be956873146108ab57610158565b80632f4a4dcb116101155780632f4a4dcb1461046e5780634780468f146104dc5780634fe6c9501461052057806358dae14f14610564578063657a25121461060b5780636d263ceb1461064f57610158565b8063047f66c31461015d57806311f67285146101a157806313d65d3a1461027c57806317335a95146102ff5780631c7fb129146103da5780631da3e2dc14610424575b600080fd5b61019f6004803603602081101561017357600080fd5b81019080803573ffffffffffffffffffffffffffffffffffffffff169060200190929190505050610cb9565b005b61027a600480360360408110156101b757600080fd5b81019080803573ffffffffffffffffffffffffffffffffffffffff169060200190929190803590602001906401000000008111156101f457600080fd5b82018360208201111561020657600080fd5b8035906020019184600183028401116401000000008311171561022857600080fd5b91908080601f016020809104026020016040519081016040528093929190818152602001838380828437600081840152601f19601f820116905080830192505050505050509192919290505050610cfd565b005b610284610e68565b6040518080602001828103825283818151815260200191508051906020019080838360005b838110156102c45780820151818401526020810190506102a9565b50505050905090810190601f1680156102f15780820380516001836020036101000a031916815260200191505b509250505060405180910390f35b6103d86004803603604081101561031557600080fd5b81019080803573ffffffffffffffffffffffffffffffffffffffff1690602001909291908035906020019064010000000081111561035257600080fd5b82018360208201111561036457600080fd5b8035906020019184600183028401116401000000008311171561038657600080fd5b91908080601f016020809104026020016040519081016040528093929190818152602001838380828437600081840152601f19601f820116905080830192505050505050509192919290505050610f6c565b005b6103e26110d0565b604051808273ffffffffffffffffffffffffffffffffffffffff1673ffffffffffffffffffffffffffffffffffffffff16815260200191505060405180910390f35b61042c6110fa565b604051808273ffffffffffffffffffffffffffffffffffffffff1673ffffffffffffffffffffffffffffffffffffffff16815260200191505060405180910390f35b61049a6004803603602081101561048457600080fd5b8101908080359060200190929190505050611157565b604051808273ffffffffffffffffffffffffffffffffffffffff1673ffffffffffffffffffffffffffffffffffffffff16815260200191505060405180910390f35b61051e600480360360208110156104f257600080fd5b81019080803573ffffffffffffffffffffffffffffffffffffffff169060200190929190505050611193565b005b6105626004803603602081101561053657600080fd5b81019080803573ffffffffffffffffffffffffffffffffffffffff169060200190929190505050611237565b005b6105906004803603602081101561057a57600080fd5b81019080803590602001909291905050506112db565b6040518080602001828103825283818151815260200191508051906020019080838360005b838110156105d05780820151818401526020810190506105b5565b50505050905090810190601f1680156105fd5780820380516001836020036101000a031916815260200191505b509250505060405180910390f35b61064d6004803603602081101561062157600080fd5b81019080803573ffffffffffffffffffffffffffffffffffffffff169060200190929190505050611394565b005b6106916004803603602081101561066557600080fd5b81019080803573ffffffffffffffffffffffffffffffffffffffff1690602001909291905050506113d8565b005b61069b61147c565b604051808273ffffffffffffffffffffffffffffffffffffffff1673ffffffffffffffffffffffffffffffffffffffff16815260200191505060405180910390f35b6106e5611484565b604051808273ffffffffffffffffffffffffffffffffffffffff1673ffffffffffffffffffffffffffffffffffffffff16815260200191505060405180910390f35b6107696004803603602081101561073d57600080fd5b81019080803573ffffffffffffffffffffffffffffffffffffffff1690602001909291905050506114ae565b6040518080602001828103825283818151815260200191508051906020019080838360005b838110156107a957808201518184015260208101905061078e565b50505050905090810190601f1680156107d65780820380516001836020036101000a031916815260200191505b509250505060405180910390f35b6107ec611573565b6040518080602001828103825283818151815260200191508051906020019080838360005b8381101561082c578082015181840152602081019050610811565b50505050905090810190601f1680156108595780820380516001836020036101000a031916815260200191505b509250505060405180910390f35b6108a96004803603602081101561087d57600080fd5b81019080803573ffffffffffffffffffffffffffffffffffffffff169060200190929190505050611677565b005b6108ed600480360360208110156108c157600080fd5b81019080803573ffffffffffffffffffffffffffffffffffffffff16906020019092919050505061171b565b6040518080602001828103825283818151815260200191508051906020019080838360005b8381101561092d578082015181840152602081019050610912565b50505050905090810190601f16801561095a5780820380516001836020036101000a031916815260200191505b509250505060405180910390f35b6109946004803603602081101561097e57600080fd5b81019080803590602001909291905050506117e0565b604051808273ffffffffffffffffffffffffffffffffffffffff1673ffffffffffffffffffffffffffffffffffffffff16815260200191505060405180910390f35b610a18600480360360208110156109ec57600080fd5b81019080803573ffffffffffffffffffffffffffffffffffffffff16906020019092919050505061181c565b6040518080602001828103825283818151815260200191508051906020019080838360005b83811015610a58578082015181840152602081019050610a3d565b50505050905090810190601f168015610a855780820380516001836020036101000a031916815260200191505b509250505060405180910390f35b610ad560048036036020811015610aa957600080fd5b81019080803573ffffffffffffffffffffffffffffffffffffffff169060200190929190505050611900565b005b610b1960048036036020811015610aed57600080fd5b81019080803573ffffffffffffffffffffffffffffffffffffffff169060200190929190505050611a5e565b6040518080602001828103825283818151815260200191508051906020019080838360005b83811015610b59578082015181840152602081019050610b3e565b50505050905090810190601f168015610b865780820380516001836020036101000a031916815260200191505b509250505060405180910390f35b610b9c611b42565b604051808273ffffffffffffffffffffffffffffffffffffffff1673ffffffffffffffffffffffffffffffffffffffff16815260200191505060405180910390f35b610cb760048036036040811015610bf457600080fd5b8101908080359060200190640100000000811115610c1157600080fd5b820183602082011115610c2357600080fd5b80359060200191846001830284011164010000000083111715610c4557600080fd5b91908080601f016020809104026020016040519081016040528093929190818152602001838380828437600081840152601f19601f820116905080830192505050505050509192919290803573ffffffffffffffffffffffffffffffffffffffff169060200190929190505050611b6c565b005b80600b60006101000a81548173ffffffffffffffffffffffffffffffffffffffff021916908373ffffffffffffffffffffffffffffffffffffffff16021790555050565b60011515610d15336000611c9c90919063ffffffff16565b151514610d8a576040517f08c379a000000000000000000000000000000000000000000000000000000000815260040180806020018281038252601b8152602001807f4f6e6c7920796f752043616e2041646420796f757220696e666f20000000000081525060200191505060405180910390fd5b6000600460003373ffffffffffffffffffffffffffffffffffffffff1673ffffffffffffffffffffffffffffffffffffffff168152602001908152602001600020905081816000019080519060200190610de5929190611f12565b50600160073390806001815401808255809150509060018203906000526020600020016000909192909190916101000a81548173ffffffffffffffffffffffffffffffffffffffff021916908373ffffffffffffffffffffffffffffffffffffffff1602179055505050610e63836002611d7a90919063ffffffff16565b505050565b606060056000600b60009054906101000a900473ffffffffffffffffffffffffffffffffffffffff1673ffffffffffffffffffffffffffffffffffffffff1673ffffffffffffffffffffffffffffffffffffffff1681526020019081526020016000206000018054600181600116156101000203166002900480601f016020809104026020016040519081016040528092919081815260200182805460018160011615610100020316600290048015610f625780601f10610f3757610100808354040283529160200191610f62565b820191906000526020600020905b815481529060010190602001808311610f4557829003601f168201915b5050505050905090565b610f80336000611c9c90919063ffffffff16565b610ff2576040517f08c379a000000000000000000000000000000000000000000000000000000000815260040180806020018281038252600e8152602001807f4f6e6c7920466f722041646d696e00000000000000000000000000000000000081525060200191505060405180910390fd5b6000600360003373ffffffffffffffffffffffffffffffffffffffff1673ffffffffffffffffffffffffffffffffffffffff16815260200190815260200160002090508181600001908051906020019061104d929190611f12565b50600160063390806001815401808255809150509060018203906000526020600020016000909192909190916101000a81548173ffffffffffffffffffffffffffffffffffffffff021916908373ffffffffffffffffffffffffffffffffffffffff16021790555050506110cb836001611d7a90919063ffffffff16565b505050565b6000600c60009054906101000a900473ffffffffffffffffffffffffffffffffffffffff16905090565b6000806000905060009050600680549050811015611152576006818154811061111f57fe5b9060005260206000200160009054906101000a900473ffffffffffffffffffffffffffffffffffffffff16915050611154565b505b90565b6007818154811061116457fe5b906000526020600020016000915054906101000a900473ffffffffffffffffffffffffffffffffffffffff1681565b600115156111ab336000611c9c90919063ffffffff16565b151514611220576040517f08c379a00000000000000000000000000000000000000000000000000000000081526004018080602001828103825260168152602001807f4f6e6c792041646d696e2043616e20446f20546861740000000000000000000081525060200191505060405180910390fd5b611234816001611d7a90919063ffffffff16565b50565b6001151561124f336000611c9c90919063ffffffff16565b1515146112c4576040517f08c379a00000000000000000000000000000000000000000000000000000000081526004018080602001828103825260168152602001807f4f6e6c792041646d696e2043616e20446f20546861740000000000000000000081525060200191505060405180910390fd5b6112d8816001611e5590919063ffffffff16565b50565b600881815481106112e857fe5b906000526020600020016000915090508054600181600116156101000203166002900480601f01602080910402602001604051908101604052809291908181526020018280546001816001161561010002031660029004801561138c5780601f106113615761010080835404028352916020019161138c565b820191906000526020600020905b81548152906001019060200180831161136f57829003601f168201915b505050505081565b80600c60006101000a81548173ffffffffffffffffffffffffffffffffffffffff021916908373ffffffffffffffffffffffffffffffffffffffff16021790555050565b600115156113f0336000611c9c90919063ffffffff16565b151514611465576040517f08c379a00000000000000000000000000000000000000000000000000000000081526004018080602001828103825260168152602001807f4f6e6c792041646d696e2043616e20446f20546861740000000000000000000081525060200191505060405180910390fd5b611479816002611d7a90919063ffffffff16565b50565b600033905090565b6000600a60009054906101000a900473ffffffffffffffffffffffffffffffffffffffff16905090565b60606114c4826002611c9c90919063ffffffff16565b611536576040517f08c379a00000000000000000000000000000000000000000000000000000000081526004018080602001828103825260108152602001807f4f6e6c7920666f7220446f63746f72730000000000000000000000000000000081525060200191505060405180910390fd5b6040518060400160405280600181526020017f31000000000000000000000000000000000000000000000000000000000000008152509050919050565b606060036000600c60009054906101000a900473ffffffffffffffffffffffffffffffffffffffff1673ffffffffffffffffffffffffffffffffffffffff1673ffffffffffffffffffffffffffffffffffffffff1681526020019081526020016000206000018054600181600116156101000203166002900480601f01602080910402602001604051908101604052809291908181526020018280546001816001161561010002031660029004801561166d5780601f106116425761010080835404028352916020019161166d565b820191906000526020600020905b81548152906001019060200180831161165057829003601f168201915b5050505050905090565b6001151561168f336000611c9c90919063ffffffff16565b151514611704576040517f08c379a00000000000000000000000000000000000000000000000000000000081526004018080602001828103825260168152602001807f4f6e6c792041646d696e2043616e20446f20546861740000000000000000000081525060200191505060405180910390fd5b611718816002611e5590919063ffffffff16565b50565b6060611731826001611c9c90919063ffffffff16565b6117a3576040517f08c379a00000000000000000000000000000000000000000000000000000000081526004018080602001828103825260108152602001807f4f6e6c7920666f7220446f63746f72730000000000000000000000000000000081525060200191505060405180910390fd5b6040518060400160405280600181526020017f31000000000000000000000000000000000000000000000000000000000000008152509050919050565b600681815481106117ed57fe5b906000526020600020016000915054906101000a900473ffffffffffffffffffffffffffffffffffffffff1681565b6060600460008373ffffffffffffffffffffffffffffffffffffffff1673ffffffffffffffffffffffffffffffffffffffff1681526020019081526020016000206000018054600181600116156101000203166002900480601f0160208091040260200160405190810160405280929190818152602001828054600181600116156101000203166002900480156118f45780601f106118c9576101008083540402835291602001916118f4565b820191906000526020600020905b8154815290600101906020018083116118d757829003601f168201915b50505050509050919050565b60011515611918336001611c9c90919063ffffffff16565b15151461198d576040517f08c379a00000000000000000000000000000000000000000000000000000000081526004018080602001828103825260178152602001807f4f6e6c7920446f63746f722043616e20446f205468617400000000000000000081525060200191505060405180910390fd5b600115156119a5826002611c9c90919063ffffffff16565b151514611a1a576040517f08c379a00000000000000000000000000000000000000000000000000000000081526004018080602001828103825260108152602001807f6973206e6f7420612050617469656e740000000000000000000000000000000081525060200191505060405180910390fd5b80600b60006101000a81548173ffffffffffffffffffffffffffffffffffffffff021916908373ffffffffffffffffffffffffffffffffffffffff16021790555050565b6060600360008373ffffffffffffffffffffffffffffffffffffffff1673ffffffffffffffffffffffffffffffffffffffff1681526020019081526020016000206000018054600181600116156101000203166002900480601f016020809104026020016040519081016040528092919081815260200182805460018160011615610100020316600290048015611b365780601f10611b0b57610100808354040283529160200191611b36565b820191906000526020600020905b815481529060010190602001808311611b1957829003601f168201915b50505050509050919050565b6000600b60009054906101000a900473ffffffffffffffffffffffffffffffffffffffff16905090565b60011515611b84336001611c9c90919063ffffffff16565b151514611bf9576040517f08c379a00000000000000000000000000000000000000000000000000000000081526004018080602001828103825260178152602001807f4f6e6c7920446f63746f722043616e20446f205468617400000000000000000081525060200191505060405180910390fd5b6000600560008373ffffffffffffffffffffffffffffffffffffffff1673ffffffffffffffffffffffffffffffffffffffff168152602001908152602001600020905082816000019080519060200190611c54929190611f12565b5060016008849080600181540180825580915050906001820390600052602060002001600090919290919091509080519060200190611c94929190611f12565b505050505050565b60008073ffffffffffffffffffffffffffffffffffffffff168273ffffffffffffffffffffffffffffffffffffffff161415611d23576040517f08c379a0000000000000000000000000000000000000000000000000000000008152600401808060200182810382526022815260200180611fd96022913960400191505060405180910390fd5b8260000160008373ffffffffffffffffffffffffffffffffffffffff1673ffffffffffffffffffffffffffffffffffffffff16815260200190815260200160002060009054906101000a900460ff16905092915050565b611d848282611c9c565b15611df7576040517f08c379a000000000000000000000000000000000000000000000000000000000815260040180806020018281038252601f8152602001807f526f6c65733a206163636f756e7420616c72656164792068617320726f6c650081525060200191505060405180910390fd5b60018260000160008373ffffffffffffffffffffffffffffffffffffffff1673ffffffffffffffffffffffffffffffffffffffff16815260200190815260200160002060006101000a81548160ff0219169083151502179055505050565b611e5f8282611c9c565b611eb4576040517f08c379a0000000000000000000000000000000000000000000000000000000008152600401808060200182810382526021815260200180611fb86021913960400191505060405180910390fd5b60008260000160008373ffffffffffffffffffffffffffffffffffffffff1673ffffffffffffffffffffffffffffffffffffffff16815260200190815260200160002060006101000a81548160ff0219169083151502179055505050565b828054600181600116156101000203166002900490600052602060002090601f016020900481019282601f10611f5357805160ff1916838001178555611f81565b82800160010185558215611f81579182015b82811115611f80578251825591602001919060010190611f65565b5b509050611f8e9190611f92565b5090565b611fb491905b80821115611fb0576000816000905550600101611f98565b5090565b9056fe526f6c65733a206163636f756e7420646f6573206e6f74206861766520726f6c65526f6c65733a206163636f756e7420697320746865207a65726f2061646472657373a265627a7a72315820543d9dca5546e196bba3e20f392aa11e194058867a124afe163fa8f3c61be26164736f6c63430005100032526f6c65733a206163636f756e7420697320746865207a65726f2061646472657373",
  "source": "pragma solidity >=0.4.21 <0.6.0;\r\n\r\nimport './Roles.sol';\r\n\r\ncontract Contract{\r\n\r\n    using Roles for Roles.Role;\r\n\r\n    Roles.Role private admin;\r\n    Roles.Role private doctor;\r\n    Roles.Role private patient;\r\n\r\n    struct Doctor{\r\n        string drHash;\r\n    }\r\n\r\n    struct Patient{\r\n        string patHash;\r\n    }\r\n\r\n    struct MedRec{\r\n        string RecordHash;\r\n    }\r\n\r\n    mapping (address => Doctor) Doctors;\r\n    mapping (address => Patient) Patients;\r\n    mapping (address => MedRec) Records;\r\n\r\n    address[] public Dr_ids;\r\n    address[] public Patient_ids;\r\n    string[] public RecordHashes;\r\n\r\n    address accountId;\r\n    address admin_id ;\r\n    address get_patient_id;\r\n    address get_dr_id;\r\n\r\n    constructor () public{\r\n        admin_id = msg.sender;\r\n        admin.add(admin_id);\r\n    }\r\n\r\n    //get Admin\r\n\r\n    function getAdmin() public view returns(address){\r\n        return admin_id;\r\n    }\r\n\r\n/*\r\n\r\n    Doctor\r\n\r\n*/\r\n    //Add Doctor\r\n\r\n    function addDrInfo(address dr_id,string memory _drInfo_hash) public{\r\n        require(admin.has(msg.sender),'Only For Admin');\r\n\r\n        Doctor storage drInfo = Doctors[msg.sender];\r\n        drInfo.drHash = _drInfo_hash;\r\n        Dr_ids.push(msg.sender) - 1;\r\n\r\n        doctor.add(dr_id);\r\n    }\r\n\r\n    function addDoctor(address _newdr) external onlyAdmin() {\r\n        doctor.add(_newdr);\r\n    }\r\n    function delDr(address _accid) external onlyAdmin(){\r\n        doctor.remove(_accid);\r\n    }\r\n        function get_drtid() public view returns(address){\r\n        return get_dr_id;\r\n    }\r\n    function search(address _id)public{\r\n        get_dr_id = _id;\r\n    }\r\n        function getDrInfo() public view returns(string memory){\r\n        return (Doctors[get_dr_id].drHash);\r\n    }\r\n    function getDr(address _id) public view returns(string memory){\r\n        return (Doctors[_id].drHash);\r\n    }\r\n    function isDr(address id) public view returns(string memory){\r\n        require(doctor.has(id),\"Only for Doctors\");\r\n        return \"1\";\r\n    }\r\n    function getAllDrs() public view returns(address){\r\n        uint i = 0;\r\n        for(i = 0;i<Dr_ids.length;i++)\r\n        {\r\n            return(Dr_ids[i]);\r\n        }\r\n    }\r\n/*\r\n        Patient\r\n\r\n*/\r\n    function isPat(address id) public view returns(string memory){\r\n        require(patient.has(id),\"Only for Doctors\");\r\n        return \"1\";\r\n    }\r\n    function addPatient(address _newpatient) external onlyAdmin() {\r\n        patient.add(_newpatient);\r\n    }\r\n\r\n    function addRec(address _patid) external onlyDoctor() {\r\n        require(patient.has(_patid) == true,\"is not a Patient\");\r\n        get_patient_id = _patid;\r\n    }\r\n    function viewPatRec(address _patid) public{\r\n        get_patient_id = _patid;\r\n    }\r\n\r\n    function delPat(address _accid) external onlyAdmin(){\r\n        patient.remove(_accid);\r\n    }\r\n    function get() public view  returns(address){\r\n        return msg.sender;\r\n    }\r\n    function get_patid() public view returns(address){\r\n        return get_patient_id;\r\n    }\r\n    function getPatInfo(address iD)public view returns(string memory){\r\n        return (Patients[iD].patHash);\r\n    }\r\n    function addPatInfo(address pat_id,string memory _patInfoHash) public {\r\n        require(admin.has(msg.sender) == true,'Only you Can Add your info ');\r\n        Patient storage patInfo = Patients[msg.sender];\r\n        patInfo.patHash = _patInfoHash;\r\n        Patient_ids.push(msg.sender) - 1;\r\n\r\n        patient.add(pat_id);\r\n    }\r\n\r\n/*\r\n\r\n    Medical Records\r\n\r\n\r\n*/\r\n\r\n    function addMedRecord(string memory _recHash,address _pat_id) public{\r\n        require(doctor.has(msg.sender) == true,'Only Doctor Can Do That');\r\n\r\n        MedRec storage record = Records[_pat_id];\r\n        record.RecordHash = _recHash;\r\n        RecordHashes.push(_recHash) - 1;\r\n    }\r\n\r\n    function viewMedRec()public view returns(string memory){\r\n        return(Records[get_patient_id].RecordHash);\r\n    }\r\n\r\n/*\r\n    Modifiers\r\n*/\r\n\r\n\r\n    modifier onlyAdmin(){\r\n        require(admin.has(msg.sender) == true,'Only Admin Can Do That');\r\n        _;\r\n    }\r\n    modifier onlyDoctor(){\r\n        require(doctor.has(msg.sender) == true,'Only Doctor Can Do That');\r\n        _;\r\n    }\r\n    modifier onlyPatient(){\r\n        require(patient.has(msg.sender) == true,'Only Admin Can Do That');\r\n        _;\r\n    }\r\n\r\n}",
  "sourcePath": "C:\\Users\\shamil\\Desktop\\EHR\\ehr-blockchain\\src\\contracts\\Contract.sol",
  "compiler": {
    "name": "solc",
    "version": "0.5.16+commit.9c3226ce.Emscripten.clang"
  },
  "schemaVersion": "3.1.0",
  "updatedAt": "2021-06-10T07:25:46.346Z",
  "networkType": "ethereum",
  "devdoc": {
    "methods": {}
  },
  "userdoc": {
    "methods": {}
  }
}