{
  "contractName": "Contract",
  "abi": [
    {
      "inputs": [],
      "stateMutability": "nonpayable",
      "type": "constructor"
    },
    {
      "inputs": [
        {
          "internalType": "uint256",
          "name": "",
          "type": "uint256"
        }
      ],
      "name": "Dr_ids",
      "outputs": [
        {
          "internalType": "address",
          "name": "",
          "type": "address"
        }
      ],
      "stateMutability": "view",
      "type": "function",
      "constant": true
    },
    {
      "inputs": [
        {
          "internalType": "uint256",
          "name": "",
          "type": "uint256"
        }
      ],
      "name": "Patient_ids",
      "outputs": [
        {
          "internalType": "address",
          "name": "",
          "type": "address"
        }
      ],
      "stateMutability": "view",
      "type": "function",
      "constant": true
    },
    {
      "inputs": [
        {
          "internalType": "uint256",
          "name": "",
          "type": "uint256"
        }
      ],
      "name": "RecordHashes",
      "outputs": [
        {
          "internalType": "string",
          "name": "",
          "type": "string"
        }
      ],
      "stateMutability": "view",
      "type": "function",
      "constant": true
    },
    {
      "inputs": [],
      "name": "getAdmin",
      "outputs": [
        {
          "internalType": "address",
          "name": "",
          "type": "address"
        }
      ],
      "stateMutability": "view",
      "type": "function",
      "constant": true
    },
    {
      "inputs": [
        {
          "internalType": "address",
          "name": "dr_id",
          "type": "address"
        },
        {
          "internalType": "string",
          "name": "_drInfo_hash",
          "type": "string"
        }
      ],
      "name": "addDrInfo",
      "outputs": [],
      "stateMutability": "nonpayable",
      "type": "function"
    },
    {
      "inputs": [
        {
          "internalType": "address",
          "name": "dr_id",
          "type": "address"
        },
        {
          "internalType": "string",
          "name": "_drInfo_hash",
          "type": "string"
        }
      ],
      "name": "updateInfo",
      "outputs": [],
      "stateMutability": "nonpayable",
      "type": "function"
    },
    {
      "inputs": [
        {
          "internalType": "address",
          "name": "_newdr",
          "type": "address"
        }
      ],
      "name": "addDoctor",
      "outputs": [],
      "stateMutability": "nonpayable",
      "type": "function"
    },
    {
      "inputs": [
        {
          "internalType": "address",
          "name": "_accid",
          "type": "address"
        }
      ],
      "name": "delDr",
      "outputs": [],
      "stateMutability": "nonpayable",
      "type": "function"
    },
    {
      "inputs": [],
      "name": "get_drtid",
      "outputs": [
        {
          "internalType": "address",
          "name": "",
          "type": "address"
        }
      ],
      "stateMutability": "view",
      "type": "function",
      "constant": true
    },
    {
      "inputs": [
        {
          "internalType": "address",
          "name": "_id",
          "type": "address"
        }
      ],
      "name": "search",
      "outputs": [],
      "stateMutability": "nonpayable",
      "type": "function"
    },
    {
      "inputs": [],
      "name": "getDrInfo",
      "outputs": [
        {
          "internalType": "string",
          "name": "",
          "type": "string"
        }
      ],
      "stateMutability": "view",
      "type": "function",
      "constant": true
    },
    {
      "inputs": [
        {
          "internalType": "address",
          "name": "_id",
          "type": "address"
        }
      ],
      "name": "getDr",
      "outputs": [
        {
          "internalType": "string",
          "name": "",
          "type": "string"
        }
      ],
      "stateMutability": "view",
      "type": "function",
      "constant": true
    },
    {
      "inputs": [
        {
          "internalType": "address",
          "name": "id",
          "type": "address"
        }
      ],
      "name": "isDr",
      "outputs": [
        {
          "internalType": "string",
          "name": "",
          "type": "string"
        }
      ],
      "stateMutability": "view",
      "type": "function",
      "constant": true
    },
    {
      "inputs": [],
      "name": "getAllDrs",
      "outputs": [
        {
          "internalType": "address[]",
          "name": "",
          "type": "address[]"
        }
      ],
      "stateMutability": "view",
      "type": "function",
      "constant": true
    },
    {
      "inputs": [],
      "name": "getDoctorCount",
      "outputs": [
        {
          "internalType": "uint256",
          "name": "",
          "type": "uint256"
        }
      ],
      "stateMutability": "view",
      "type": "function",
      "constant": true
    },
    {
      "inputs": [
        {
          "internalType": "address",
          "name": "id",
          "type": "address"
        }
      ],
      "name": "isPat",
      "outputs": [
        {
          "internalType": "string",
          "name": "",
          "type": "string"
        }
      ],
      "stateMutability": "view",
      "type": "function",
      "constant": true
    },
    {
      "inputs": [
        {
          "internalType": "address",
          "name": "_newpatient",
          "type": "address"
        }
      ],
      "name": "addPatient",
      "outputs": [],
      "stateMutability": "nonpayable",
      "type": "function"
    },
    {
      "inputs": [
        {
          "internalType": "address",
          "name": "_patid",
          "type": "address"
        }
      ],
      "name": "addRec",
      "outputs": [],
      "stateMutability": "nonpayable",
      "type": "function"
    },
    {
      "inputs": [
        {
          "internalType": "address",
          "name": "_patid",
          "type": "address"
        }
      ],
      "name": "viewPatRec",
      "outputs": [],
      "stateMutability": "nonpayable",
      "type": "function"
    },
    {
      "inputs": [
        {
          "internalType": "address",
          "name": "_accid",
          "type": "address"
        }
      ],
      "name": "delPat",
      "outputs": [],
      "stateMutability": "nonpayable",
      "type": "function"
    },
    {
      "inputs": [],
      "name": "get",
      "outputs": [
        {
          "internalType": "address",
          "name": "",
          "type": "address"
        }
      ],
      "stateMutability": "view",
      "type": "function",
      "constant": true
    },
    {
      "inputs": [],
      "name": "get_patid",
      "outputs": [
        {
          "internalType": "address",
          "name": "",
          "type": "address"
        }
      ],
      "stateMutability": "view",
      "type": "function",
      "constant": true
    },
    {
      "inputs": [
        {
          "internalType": "address",
          "name": "iD",
          "type": "address"
        }
      ],
      "name": "getPatInfo",
      "outputs": [
        {
          "internalType": "string",
          "name": "",
          "type": "string"
        }
      ],
      "stateMutability": "view",
      "type": "function",
      "constant": true
    },
    {
      "inputs": [
        {
          "internalType": "address",
          "name": "pat_id",
          "type": "address"
        },
        {
          "internalType": "string",
          "name": "_patInfoHash",
          "type": "string"
        }
      ],
      "name": "addPatInfo",
      "outputs": [],
      "stateMutability": "nonpayable",
      "type": "function"
    },
    {
      "inputs": [
        {
          "internalType": "string",
          "name": "_recHash",
          "type": "string"
        },
        {
          "internalType": "address",
          "name": "_pat_id",
          "type": "address"
        }
      ],
      "name": "addMedRecord",
      "outputs": [],
      "stateMutability": "nonpayable",
      "type": "function"
    },
    {
      "inputs": [],
      "name": "viewMedRec",
      "outputs": [
        {
          "internalType": "string",
          "name": "",
          "type": "string"
        }
      ],
      "stateMutability": "view",
      "type": "function",
      "constant": true
    }
  ],
  "bytecode": "0x608060405234801561001057600080fd5b50600a8054336001600160a01b0319909116811790915561003e90600090610043602090811b610b9817901c565b610147565b61004d82826100c4565b1561009f5760405162461bcd60e51b815260206004820152601f60248201527f526f6c65733a206163636f756e7420616c72656164792068617320726f6c650060448201526064015b60405180910390fd5b6001600160a01b0316600090815260209190915260409020805460ff19166001179055565b60006001600160a01b0382166101275760405162461bcd60e51b815260206004820152602260248201527f526f6c65733a206163636f756e7420697320746865207a65726f206164647265604482015261737360f01b6064820152608401610096565b506001600160a01b03166000908152602091909152604090205460ff1690565b61108b806101566000396000f3fe608060405234801561001057600080fd5b506004361061018e5760003560e01c80636d4ce63c116100de578063be95687311610097578063d2fce6cc11610071578063d2fce6cc14610357578063d4fd45c41461036a578063ddf8f98b1461037d578063f1a1d7d51461038e57600080fd5b8063be9568731461031e578063c979783f14610331578063cc5729141461034457600080fd5b80636d4ce63c146102c85780636e9960c3146102ce578063720d5b4b146102df57806379111c1c146102f257806392bed5ce146103035780639fd067741461030b57600080fd5b80632f4a4dcb1161014b578063538b30ae11610125578063538b30ae1461025f57806358dae14f14610272578063657a2512146102855780636d263ceb146102b557600080fd5b80632f4a4dcb146102265780634780468f146102395780634fe6c9501461024c57600080fd5b8063047f66c31461019357806311f67285146101a857806313d65d3a146101bb57806317335a95146101d95780631c7fb129146101ec5780631da3e2dc14610211575b600080fd5b6101a66101a1366004610dce565b6103a1565b005b6101a66101b6366004610e93565b6103c3565b6101c361049b565b6040516101d09190610ee1565b60405180910390f35b6101a66101e7366004610e93565b610547565b600c546001600160a01b03165b6040516001600160a01b0390911681526020016101d0565b610219610614565b6040516101d09190610f36565b6101f9610234366004610f83565b610675565b6101a6610247366004610dce565b61069f565b6101a661025a366004610dce565b6106d9565b6101a661026d366004610e93565b610710565b6101c3610280366004610f83565b61078a565b6101a6610293366004610dce565b600c80546001600160a01b0319166001600160a01b0392909216919091179055565b6101a66102c3366004610dce565b610836565b336101f9565b600a546001600160a01b03166101f9565b6101c36102ed366004610dce565b61086d565b6006546040519081526020016101d0565b6101c36108d6565b6101a6610319366004610dce565b6108ff565b6101c361032c366004610dce565b610936565b6101f961033f366004610f83565b610943565b6101c3610352366004610dce565b610953565b6101a6610365366004610dce565b6109ff565b6101c3610378366004610dce565b610aa4565b600b546001600160a01b03166101f9565b6101a661039c366004610f9c565b610acb565b600b80546001600160a01b0319166001600160a01b0392909216919091179055565b6103ce600033610c14565b15156001146104245760405162461bcd60e51b815260206004820152601b60248201527f4f6e6c7920796f752043616e2041646420796f757220696e666f20000000000060448201526064015b60405180910390fd5b33600090815260046020908152604090912082519091610448918391850190610d19565b50600780546001810182556000919091527fa66cc928b5edb82af9bd49922954155ab7b0942694bea4ce44661d9a8736c6880180546001600160a01b03191633179055610496600284610b98565b505050565b600b546001600160a01b031660009081526005602052604090208054606091906104c490610fea565b80601f01602080910402602001604051908101604052809291908181526020018280546104f090610fea565b801561053d5780601f106105125761010080835404028352916020019161053d565b820191906000526020600020905b81548152906001019060200180831161052057829003601f168201915b5050505050905090565b610552600033610c14565b6105905760405162461bcd60e51b815260206004820152600f60248201526e27b7363c902337b9102237b1ba37b960891b604482015260640161041b565b6001600160a01b0382166000908152600360209081526040909120825190916105bd918391850190610d19565b5060068054600180820183556000929092527ff652222313e28459528d920b65115c16c04f3efc82aaedc97be59f3f377c0d3f0180546001600160a01b0319166001600160a01b0386161790556104969084610b98565b6060600680548060200260200160405190810160405280929190818152602001828054801561053d57602002820191906000526020600020905b81546001600160a01b0316815260019091019060200180831161064e575050505050905090565b6007818154811061068557600080fd5b6000918252602090912001546001600160a01b0316905081565b6106aa600033610c14565b15156001146106cb5760405162461bcd60e51b815260040161041b90611025565b6106d6600182610b98565b50565b6106e4600033610c14565b15156001146107055760405162461bcd60e51b815260040161041b90611025565b6106d6600182610c97565b33600090815260036020908152604090912082519091610734918391850190610d19565b5050600680546001810182556000919091527ff652222313e28459528d920b65115c16c04f3efc82aaedc97be59f3f377c0d3f0180546001600160a01b0319166001600160a01b03939093169290921790915550565b6008818154811061079a57600080fd5b9060005260206000200160009150905080546107b590610fea565b80601f01602080910402602001604051908101604052809291908181526020018280546107e190610fea565b801561082e5780601f106108035761010080835404028352916020019161082e565b820191906000526020600020905b81548152906001019060200180831161081157829003601f168201915b505050505081565b610841600033610c14565b15156001146108625760405162461bcd60e51b815260040161041b90611025565b6106d6600282610b98565b606061087a600283610c14565b6108b95760405162461bcd60e51b815260206004820152601060248201526f4f6e6c7920666f7220446f63746f727360801b604482015260640161041b565b50506040805180820190915260018152603160f81b602082015290565b600c546001600160a01b031660009081526003602052604090208054606091906104c490610fea565b61090a600033610c14565b151560011461092b5760405162461bcd60e51b815260040161041b90611025565b6106d6600282610c97565b606061087a600183610c14565b6006818154811061068557600080fd5b6001600160a01b038116600090815260046020526040902080546060919061097a90610fea565b80601f01602080910402602001604051908101604052809291908181526020018280546109a690610fea565b80156109f35780601f106109c8576101008083540402835291602001916109f3565b820191906000526020600020905b8154815290600101906020018083116109d657829003601f168201915b50505050509050919050565b610a0a600133610c14565b1515600114610a555760405162461bcd60e51b815260206004820152601760248201527613db9b1e48111bd8dd1bdc8810d85b88111bc8151a185d604a1b604482015260640161041b565b610a60600282610c14565b15156001146103a15760405162461bcd60e51b815260206004820152601060248201526f1a5cc81b9bdd08184814185d1a595b9d60821b604482015260640161041b565b6001600160a01b038116600090815260036020526040902080546060919061097a90610fea565b610ad6600133610c14565b1515600114610b215760405162461bcd60e51b815260206004820152601760248201527613db9b1e48111bd8dd1bdc8810d85b88111bc8151a185d604a1b604482015260640161041b565b6001600160a01b038116600090815260056020908152604090912083519091610b4e918391860190610d19565b50600880546001810182556000919091528351610b92917ff3f7a9fe364faab93b216da50a3214154f22a0a2b415b23a84c8169e8b636ee301906020860190610d19565b50505050565b610ba28282610c14565b15610bef5760405162461bcd60e51b815260206004820152601f60248201527f526f6c65733a206163636f756e7420616c72656164792068617320726f6c6500604482015260640161041b565b6001600160a01b0316600090815260209190915260409020805460ff19166001179055565b60006001600160a01b038216610c775760405162461bcd60e51b815260206004820152602260248201527f526f6c65733a206163636f756e7420697320746865207a65726f206164647265604482015261737360f01b606482015260840161041b565b506001600160a01b03166000908152602091909152604090205460ff1690565b610ca18282610c14565b610cf75760405162461bcd60e51b815260206004820152602160248201527f526f6c65733a206163636f756e7420646f6573206e6f74206861766520726f6c6044820152606560f81b606482015260840161041b565b6001600160a01b0316600090815260209190915260409020805460ff19169055565b828054610d2590610fea565b90600052602060002090601f016020900481019282610d475760008555610d8d565b82601f10610d6057805160ff1916838001178555610d8d565b82800160010185558215610d8d579182015b82811115610d8d578251825591602001919060010190610d72565b50610d99929150610d9d565b5090565b5b80821115610d995760008155600101610d9e565b80356001600160a01b0381168114610dc957600080fd5b919050565b600060208284031215610de057600080fd5b610de982610db2565b9392505050565b634e487b7160e01b600052604160045260246000fd5b600082601f830112610e1757600080fd5b813567ffffffffffffffff80821115610e3257610e32610df0565b604051601f8301601f19908116603f01168101908282118183101715610e5a57610e5a610df0565b81604052838152866020858801011115610e7357600080fd5b836020870160208301376000602085830101528094505050505092915050565b60008060408385031215610ea657600080fd5b610eaf83610db2565b9150602083013567ffffffffffffffff811115610ecb57600080fd5b610ed785828601610e06565b9150509250929050565b600060208083528351808285015260005b81811015610f0e57858101830151858201604001528201610ef2565b81811115610f20576000604083870101525b50601f01601f1916929092016040019392505050565b6020808252825182820181905260009190848201906040850190845b81811015610f775783516001600160a01b031683529284019291840191600101610f52565b50909695505050505050565b600060208284031215610f9557600080fd5b5035919050565b60008060408385031215610faf57600080fd5b823567ffffffffffffffff811115610fc657600080fd5b610fd285828601610e06565b925050610fe160208401610db2565b90509250929050565b600181811c90821680610ffe57607f821691505b6020821081141561101f57634e487b7160e01b600052602260045260246000fd5b50919050565b60208082526016908201527513db9b1e4810591b5a5b8810d85b88111bc8151a185d60521b60408201526060019056fea2646970667358221220dfe16f85d4237f0306d7b62e514daed0404b80d439d6d6cb364663743ddaa1b064736f6c634300080b0033",
  "immutableReferences": {},
  "source": "// SPDX-License-Identifier: MIT\npragma solidity >= 0.4.21;\n\nimport './Roles.sol';\n\ncontract Contract{\n\n    using Roles for Roles.Role;\n\n    Roles.Role private admin;\n    Roles.Role private doctor;\n    Roles.Role private patient;\n\n    struct Doctor{\n        string drHash;\n    }\n\n    struct Patient{\n        string patHash;\n    }\n\n    struct MedRec{\n        string RecordHash;\n    }\n\n    mapping(address => Doctor) Doctors;\n    mapping(address => Patient) Patients;\n    mapping(address => MedRec) Records;\n\n    address[] public Dr_ids;\n    address[] public Patient_ids;\n    string[] public RecordHashes;\n\n    address accountId;\n    address admin_id;\n    address get_patient_id;\n    address get_dr_id;\n\n    constructor() {\n        admin_id = msg.sender;\n        admin.add(admin_id);\n    }\n\n    //get Admin\n\n    function getAdmin() public view returns(address){\n        return admin_id;\n    }\n\n    /*\n    \n        Doctor\n    \n    */\n    //Add Doctor\n\n    function addDrInfo(address dr_id, string memory _drInfo_hash) public{\n        require(admin.has(msg.sender), 'Only For Doctor');\n\n        Doctor storage drInfo = Doctors[dr_id];\n        drInfo.drHash = _drInfo_hash;\n        Dr_ids.push(dr_id);\n\n        doctor.add(dr_id);\n    }\n\n    function updateInfo(address dr_id, string memory _drInfo_hash) public{\n        Doctor storage drInfo = Doctors[msg.sender];\n        drInfo.drHash = _drInfo_hash;\n        Dr_ids.push(dr_id);\n    }\n\n    function addDoctor(address _newdr) external onlyAdmin() {\n        doctor.add(_newdr);\n    }\n\n    function delDr(address _accid) external onlyAdmin(){\n        doctor.remove(_accid);\n    }\n\n    function get_drtid() public view returns(address){\n        return get_dr_id;\n    }\n\n    function search(address _id)public{\n        get_dr_id = _id;\n    }\n\n    function getDrInfo() public view returns(string memory){\n        return (Doctors[get_dr_id].drHash);\n    }\n\n    function getDr(address _id) public view returns(string memory){\n        return (Doctors[_id].drHash);\n    }\n\n    function isDr(address id) public view returns(string memory){\n        require(doctor.has(id), \"Only for Doctors\");\n        return \"1\";\n    }\n    \n    function getAllDrs() public view returns(address[] memory){\n        return(Dr_ids);\n    }\n\n    function getDoctorCount() public view returns(uint){\n        return(Dr_ids.length);\n    }\n\n    // function getAllDrDetails() onlyAdmin() public view returns(string[] memory) {\n    //     drIds = \n    //     return ['']\n    // }\n    /*\n            Patient\n    \n    */\n    function isPat(address id) public view returns(string memory){\n        require(patient.has(id), \"Only for Doctors\");\n        return \"1\";\n    }\n    function addPatient(address _newpatient) external onlyAdmin() {\n        patient.add(_newpatient);\n    }\n\n    function addRec(address _patid) external onlyDoctor() {\n        require(patient.has(_patid) == true, \"is not a Patient\");\n        get_patient_id = _patid;\n    }\n    function viewPatRec(address _patid) public{\n        get_patient_id = _patid;\n    }\n\n    function delPat(address _accid) external onlyAdmin(){\n        patient.remove(_accid);\n    }\n    function get() public view  returns(address){\n        return msg.sender;\n    }\n    function get_patid() public view returns(address){\n        return get_patient_id;\n    }\n    function getPatInfo(address iD)public view returns(string memory){\n        return (Patients[iD].patHash);\n    }\n    function addPatInfo(address pat_id, string memory _patInfoHash) public {\n        require(admin.has(msg.sender) == true, 'Only you Can Add your info ');\n        Patient storage patInfo = Patients[msg.sender];\n        patInfo.patHash = _patInfoHash;\n        Patient_ids.push(msg.sender);\n\n        patient.add(pat_id);\n    }\n\n    /*\n    \n        Medical Records\n    \n    \n    */\n\n    function addMedRecord(string memory _recHash, address _pat_id) public{\n        require(doctor.has(msg.sender) == true, 'Only Doctor Can Do That');\n\n        MedRec storage record = Records[_pat_id];\n        record.RecordHash = _recHash;\n        RecordHashes.push(_recHash);\n    }\n\n    function viewMedRec()public view returns(string memory){\n        return (Records[get_patient_id].RecordHash);\n    }\n\n    /*\n        Modifiers\n    */\n\n\n    modifier onlyAdmin(){\n        require(admin.has(msg.sender) == true, 'Only Admin Can Do That');\n        _;\n    }\n    modifier onlyDoctor(){\n        require(doctor.has(msg.sender) == true, 'Only Doctor Can Do That');\n        _;\n    }\n    modifier onlyPatient(){\n        require(patient.has(msg.sender) == true, 'Only Admin Can Do That');\n        _;\n    }\n\n}",
  "sourcePath": "/home/shamil/Desktop/EHR_BLOCKCHAIN/ehr-2.0/contracts/Contract.sol",
  "compiler": {
    "name": "solc",
    "version": "0.8.11+commit.d7f03943.Emscripten.clang"
  },
  "schemaVersion": "3.4.4",
  "updatedAt": "2022-01-23T18:43:10.466Z",
  "networkType": "ethereum",
  "devdoc": {
    "kind": "dev",
    "methods": {},
    "version": 1
  },
  "userdoc": {
    "kind": "user",
    "methods": {},
    "version": 1
  }
}