{
  "contractName": "Contract",
  "abi": [
    {
      "inputs": [],
      "stateMutability": "nonpayable",
      "type": "constructor"
    },
    {
      "inputs": [
        {
          "internalType": "uint256",
          "name": "",
          "type": "uint256"
        }
      ],
      "name": "Dr_ids",
      "outputs": [
        {
          "internalType": "address",
          "name": "",
          "type": "address"
        }
      ],
      "stateMutability": "view",
      "type": "function",
      "constant": true
    },
    {
      "inputs": [
        {
          "internalType": "uint256",
          "name": "",
          "type": "uint256"
        }
      ],
      "name": "Patient_ids",
      "outputs": [
        {
          "internalType": "address",
          "name": "",
          "type": "address"
        }
      ],
      "stateMutability": "view",
      "type": "function",
      "constant": true
    },
    {
      "inputs": [
        {
          "internalType": "uint256",
          "name": "",
          "type": "uint256"
        }
      ],
      "name": "RecordHashes",
      "outputs": [
        {
          "internalType": "string",
          "name": "",
          "type": "string"
        }
      ],
      "stateMutability": "view",
      "type": "function",
      "constant": true
    },
    {
      "inputs": [],
      "name": "getAdmin",
      "outputs": [
        {
          "internalType": "address",
          "name": "",
          "type": "address"
        }
      ],
      "stateMutability": "view",
      "type": "function",
      "constant": true
    },
    {
      "inputs": [
        {
          "internalType": "address",
          "name": "dr_id",
          "type": "address"
        },
        {
          "internalType": "string",
          "name": "_drInfo_hash",
          "type": "string"
        }
      ],
      "name": "addDrInfo",
      "outputs": [],
      "stateMutability": "nonpayable",
      "type": "function"
    },
    {
      "inputs": [
        {
          "internalType": "address",
          "name": "dr_id",
          "type": "address"
        },
        {
          "internalType": "string",
          "name": "_drInfo_hash",
          "type": "string"
        }
      ],
      "name": "updateInfo",
      "outputs": [],
      "stateMutability": "nonpayable",
      "type": "function"
    },
    {
      "inputs": [
        {
          "internalType": "address",
          "name": "_newdr",
          "type": "address"
        }
      ],
      "name": "addDoctor",
      "outputs": [],
      "stateMutability": "nonpayable",
      "type": "function"
    },
    {
      "inputs": [
        {
          "internalType": "address",
          "name": "_accid",
          "type": "address"
        }
      ],
      "name": "delDr",
      "outputs": [],
      "stateMutability": "nonpayable",
      "type": "function"
    },
    {
      "inputs": [],
      "name": "get_drtid",
      "outputs": [
        {
          "internalType": "address",
          "name": "",
          "type": "address"
        }
      ],
      "stateMutability": "view",
      "type": "function",
      "constant": true
    },
    {
      "inputs": [
        {
          "internalType": "address",
          "name": "_id",
          "type": "address"
        }
      ],
      "name": "search",
      "outputs": [],
      "stateMutability": "nonpayable",
      "type": "function"
    },
    {
      "inputs": [],
      "name": "getDrInfo",
      "outputs": [
        {
          "internalType": "string",
          "name": "",
          "type": "string"
        }
      ],
      "stateMutability": "view",
      "type": "function",
      "constant": true
    },
    {
      "inputs": [
        {
          "internalType": "address",
          "name": "_id",
          "type": "address"
        }
      ],
      "name": "getDr",
      "outputs": [
        {
          "internalType": "string",
          "name": "",
          "type": "string"
        }
      ],
      "stateMutability": "view",
      "type": "function",
      "constant": true
    },
    {
      "inputs": [
        {
          "internalType": "address",
          "name": "id",
          "type": "address"
        }
      ],
      "name": "isDr",
      "outputs": [
        {
          "internalType": "string",
          "name": "",
          "type": "string"
        }
      ],
      "stateMutability": "view",
      "type": "function",
      "constant": true
    },
    {
      "inputs": [
        {
          "internalType": "address",
          "name": "id",
          "type": "address"
        }
      ],
      "name": "isDoctor",
      "outputs": [
        {
          "internalType": "int256",
          "name": "",
          "type": "int256"
        }
      ],
      "stateMutability": "view",
      "type": "function",
      "constant": true
    },
    {
      "inputs": [],
      "name": "getAllDrs",
      "outputs": [
        {
          "internalType": "address[]",
          "name": "",
          "type": "address[]"
        }
      ],
      "stateMutability": "view",
      "type": "function",
      "constant": true
    },
    {
      "inputs": [],
      "name": "getDoctorCount",
      "outputs": [
        {
          "internalType": "uint256",
          "name": "",
          "type": "uint256"
        }
      ],
      "stateMutability": "view",
      "type": "function",
      "constant": true
    },
    {
      "inputs": [
        {
          "internalType": "address",
          "name": "id",
          "type": "address"
        }
      ],
      "name": "isPat",
      "outputs": [
        {
          "internalType": "string",
          "name": "",
          "type": "string"
        }
      ],
      "stateMutability": "view",
      "type": "function",
      "constant": true
    },
    {
      "inputs": [
        {
          "internalType": "address",
          "name": "id",
          "type": "address"
        }
      ],
      "name": "isPatient",
      "outputs": [
        {
          "internalType": "int256",
          "name": "",
          "type": "int256"
        }
      ],
      "stateMutability": "view",
      "type": "function",
      "constant": true
    },
    {
      "inputs": [
        {
          "internalType": "address",
          "name": "_newpatient",
          "type": "address"
        }
      ],
      "name": "addPatient",
      "outputs": [],
      "stateMutability": "nonpayable",
      "type": "function"
    },
    {
      "inputs": [
        {
          "internalType": "address",
          "name": "_patid",
          "type": "address"
        }
      ],
      "name": "addRec",
      "outputs": [],
      "stateMutability": "nonpayable",
      "type": "function"
    },
    {
      "inputs": [
        {
          "internalType": "address",
          "name": "_patid",
          "type": "address"
        }
      ],
      "name": "viewPatRec",
      "outputs": [],
      "stateMutability": "nonpayable",
      "type": "function"
    },
    {
      "inputs": [
        {
          "internalType": "address",
          "name": "_accid",
          "type": "address"
        }
      ],
      "name": "delPat",
      "outputs": [],
      "stateMutability": "nonpayable",
      "type": "function"
    },
    {
      "inputs": [],
      "name": "get",
      "outputs": [
        {
          "internalType": "address",
          "name": "",
          "type": "address"
        }
      ],
      "stateMutability": "view",
      "type": "function",
      "constant": true
    },
    {
      "inputs": [],
      "name": "get_patid",
      "outputs": [
        {
          "internalType": "address",
          "name": "",
          "type": "address"
        }
      ],
      "stateMutability": "view",
      "type": "function",
      "constant": true
    },
    {
      "inputs": [
        {
          "internalType": "address",
          "name": "iD",
          "type": "address"
        }
      ],
      "name": "getPatInfo",
      "outputs": [
        {
          "internalType": "string",
          "name": "",
          "type": "string"
        }
      ],
      "stateMutability": "view",
      "type": "function",
      "constant": true
    },
    {
      "inputs": [
        {
          "internalType": "address",
          "name": "pat_id",
          "type": "address"
        },
        {
          "internalType": "string",
          "name": "_patInfoHash",
          "type": "string"
        }
      ],
      "name": "addPatInfo",
      "outputs": [],
      "stateMutability": "nonpayable",
      "type": "function"
    },
    {
      "inputs": [
        {
          "internalType": "string",
          "name": "_recHash",
          "type": "string"
        },
        {
          "internalType": "address",
          "name": "_pat_id",
          "type": "address"
        }
      ],
      "name": "addMedRecord",
      "outputs": [],
      "stateMutability": "nonpayable",
      "type": "function"
    },
    {
      "inputs": [
        {
          "internalType": "address",
          "name": "id",
          "type": "address"
        }
      ],
      "name": "viewMedRec",
      "outputs": [
        {
          "internalType": "string",
          "name": "",
          "type": "string"
        }
      ],
      "stateMutability": "view",
      "type": "function",
      "constant": true
    }
  ],
  "bytecode": "0x608060405234801561001057600080fd5b50600a8054336001600160a01b0319909116811790915561003e90600090610043602090811b610cbe17901c565b610147565b61004d82826100c4565b1561009f5760405162461bcd60e51b815260206004820152601f60248201527f526f6c65733a206163636f756e7420616c72656164792068617320726f6c650060448201526064015b60405180910390fd5b6001600160a01b0316600090815260209190915260409020805460ff19166001179055565b60006001600160a01b0382166101275760405162461bcd60e51b815260206004820152602260248201527f526f6c65733a206163636f756e7420697320746865207a65726f206164647265604482015261737360f01b6064820152608401610096565b506001600160a01b03166000908152602091909152604090205460ff1690565b6111f0806101566000396000f3fe608060405234801561001057600080fd5b50600436106101c45760003560e01c80636e9960c3116100f9578063be95687311610097578063d2fce6cc11610071578063d2fce6cc146103bb578063d4fd45c4146103ce578063ddf8f98b146103e1578063f1a1d7d5146103f257600080fd5b8063be95687314610382578063c979783f14610395578063cc572914146103a857600080fd5b80638f9c79ed116100d35780638f9c79ed1461034157806392bed5ce14610354578063996440c61461035c5780639fd067741461036f57600080fd5b80636e9960c31461030b578063720d5b4b1461031c57806379111c1c1461032f57600080fd5b80634780468f1161016657806358dae14f1161014057806358dae14f146102af578063657a2512146102c25780636d263ceb146102f25780636d4ce63c1461030557600080fd5b80634780468f146102765780634fe6c95014610289578063538b30ae1461029c57600080fd5b80631c7fb129116101a25780631c7fb129146102045780631da3e2dc1461022e5780632f4a4dcb146102435780633c52554b1461025657600080fd5b8063047f66c3146101c957806311f67285146101de57806317335a95146101f1575b600080fd5b6101dc6101d7366004610ef4565b610405565b005b6101dc6101ec366004610fb9565b610427565b6101dc6101ff366004610fb9565b610508565b600c546001600160a01b03165b6040516001600160a01b0390911681526020015b60405180910390f35b6102366105d5565b6040516102259190611007565b610211610251366004611054565b610637565b610269610264366004610ef4565b610661565b604051610225919061106d565b6101dc610284366004610ef4565b61070d565b6101dc610297366004610ef4565b610747565b6101dc6102aa366004610fb9565b61077e565b6102696102bd366004611054565b6107f8565b6101dc6102d0366004610ef4565b600c80546001600160a01b0319166001600160a01b0392909216919091179055565b6101dc610300366004610ef4565b6108a4565b33610211565b600a546001600160a01b0316610211565b61026961032a366004610ef4565b6108db565b6006545b604051908152602001610225565b61033361034f366004610ef4565b610944565b6102696109a7565b61033361036a366004610ef4565b610a4a565b6101dc61037d366004610ef4565b610aaa565b610269610390366004610ef4565b610ae1565b6102116103a3366004611054565b610aee565b6102696103b6366004610ef4565b610afe565b6101dc6103c9366004610ef4565b610b25565b6102696103dc366004610ef4565b610bca565b600b546001600160a01b0316610211565b6101dc6104003660046110c2565b610bf1565b600b80546001600160a01b0319166001600160a01b0392909216919091179055565b610432600033610d3a565b15156001146104885760405162461bcd60e51b815260206004820152601b60248201527f4f6e6c7920796f752043616e2041646420796f757220696e666f20000000000060448201526064015b60405180910390fd5b6001600160a01b0382166000908152600460209081526040909120825190916104b5918391850190610e3f565b50600780546001810182556000919091527fa66cc928b5edb82af9bd49922954155ab7b0942694bea4ce44661d9a8736c6880180546001600160a01b03191633179055610503600284610cbe565b505050565b610513600033610d3a565b6105515760405162461bcd60e51b815260206004820152600f60248201526e27b7363c902337b9102237b1ba37b960891b604482015260640161047f565b6001600160a01b03821660009081526003602090815260409091208251909161057e918391850190610e3f565b5060068054600180820183556000929092527ff652222313e28459528d920b65115c16c04f3efc82aaedc97be59f3f377c0d3f0180546001600160a01b0319166001600160a01b0386161790556105039084610cbe565b6060600680548060200260200160405190810160405280929190818152602001828054801561062d57602002820191906000526020600020905b81546001600160a01b0316815260019091019060200180831161060f575b5050505050905090565b6007818154811061064757600080fd5b6000918252602090912001546001600160a01b0316905081565b6001600160a01b038116600090815260056020526040902080546060919061068890611110565b80601f01602080910402602001604051908101604052809291908181526020018280546106b490611110565b80156107015780601f106106d657610100808354040283529160200191610701565b820191906000526020600020905b8154815290600101906020018083116106e457829003601f168201915b50505050509050919050565b610718600033610d3a565b15156001146107395760405162461bcd60e51b815260040161047f9061114b565b610744600182610cbe565b50565b610752600033610d3a565b15156001146107735760405162461bcd60e51b815260040161047f9061114b565b610744600182610dbd565b336000908152600360209081526040909120825190916107a2918391850190610e3f565b5050600680546001810182556000919091527ff652222313e28459528d920b65115c16c04f3efc82aaedc97be59f3f377c0d3f0180546001600160a01b0319166001600160a01b03939093169290921790915550565b6008818154811061080857600080fd5b90600052602060002001600091509050805461082390611110565b80601f016020809104026020016040519081016040528092919081815260200182805461084f90611110565b801561089c5780601f106108715761010080835404028352916020019161089c565b820191906000526020600020905b81548152906001019060200180831161087f57829003601f168201915b505050505081565b6108af600033610d3a565b15156001146108d05760405162461bcd60e51b815260040161047f9061114b565b610744600282610cbe565b60606108e8600283610d3a565b6109275760405162461bcd60e51b815260206004820152601060248201526f4f6e6c7920666f7220446f63746f727360801b604482015260640161047f565b50506040805180820190915260018152603160f81b602082015290565b6000805b600754811161099e57600781815481106109645761096461117b565b6000918252602090912001546001600160a01b038481169116141561098c5750600192915050565b8061099681611191565b915050610948565b50600092915050565b600c546001600160a01b031660009081526003602052604090208054606091906109d090611110565b80601f01602080910402602001604051908101604052809291908181526020018280546109fc90611110565b801561062d5780601f10610a1e5761010080835404028352916020019161062d565b820191906000526020600020905b815481529060010190602001808311610a2c57509395945050505050565b6000805b600654811161099e57826001600160a01b031660068281548110610a7457610a7461117b565b6000918252602090912001546001600160a01b03161415610a985750600192915050565b80610aa281611191565b915050610a4e565b610ab5600033610d3a565b1515600114610ad65760405162461bcd60e51b815260040161047f9061114b565b610744600282610dbd565b60606108e8600183610d3a565b6006818154811061064757600080fd5b6001600160a01b038116600090815260046020526040902080546060919061068890611110565b610b30600133610d3a565b1515600114610b7b5760405162461bcd60e51b815260206004820152601760248201527613db9b1e48111bd8dd1bdc8810d85b88111bc8151a185d604a1b604482015260640161047f565b610b86600282610d3a565b15156001146104055760405162461bcd60e51b815260206004820152601060248201526f1a5cc81b9bdd08184814185d1a595b9d60821b604482015260640161047f565b6001600160a01b038116600090815260036020526040902080546060919061068890611110565b610bfc600133610d3a565b1515600114610c475760405162461bcd60e51b815260206004820152601760248201527613db9b1e48111bd8dd1bdc8810d85b88111bc8151a185d604a1b604482015260640161047f565b6001600160a01b038116600090815260056020908152604090912083519091610c74918391860190610e3f565b50600880546001810182556000919091528351610cb8917ff3f7a9fe364faab93b216da50a3214154f22a0a2b415b23a84c8169e8b636ee301906020860190610e3f565b50505050565b610cc88282610d3a565b15610d155760405162461bcd60e51b815260206004820152601f60248201527f526f6c65733a206163636f756e7420616c72656164792068617320726f6c6500604482015260640161047f565b6001600160a01b0316600090815260209190915260409020805460ff19166001179055565b60006001600160a01b038216610d9d5760405162461bcd60e51b815260206004820152602260248201527f526f6c65733a206163636f756e7420697320746865207a65726f206164647265604482015261737360f01b606482015260840161047f565b506001600160a01b03166000908152602091909152604090205460ff1690565b610dc78282610d3a565b610e1d5760405162461bcd60e51b815260206004820152602160248201527f526f6c65733a206163636f756e7420646f6573206e6f74206861766520726f6c6044820152606560f81b606482015260840161047f565b6001600160a01b0316600090815260209190915260409020805460ff19169055565b828054610e4b90611110565b90600052602060002090601f016020900481019282610e6d5760008555610eb3565b82601f10610e8657805160ff1916838001178555610eb3565b82800160010185558215610eb3579182015b82811115610eb3578251825591602001919060010190610e98565b50610ebf929150610ec3565b5090565b5b80821115610ebf5760008155600101610ec4565b80356001600160a01b0381168114610eef57600080fd5b919050565b600060208284031215610f0657600080fd5b610f0f82610ed8565b9392505050565b634e487b7160e01b600052604160045260246000fd5b600082601f830112610f3d57600080fd5b813567ffffffffffffffff80821115610f5857610f58610f16565b604051601f8301601f19908116603f01168101908282118183101715610f8057610f80610f16565b81604052838152866020858801011115610f9957600080fd5b836020870160208301376000602085830101528094505050505092915050565b60008060408385031215610fcc57600080fd5b610fd583610ed8565b9150602083013567ffffffffffffffff811115610ff157600080fd5b610ffd85828601610f2c565b9150509250929050565b6020808252825182820181905260009190848201906040850190845b818110156110485783516001600160a01b031683529284019291840191600101611023565b50909695505050505050565b60006020828403121561106657600080fd5b5035919050565b600060208083528351808285015260005b8181101561109a5785810183015185820160400152820161107e565b818111156110ac576000604083870101525b50601f01601f1916929092016040019392505050565b600080604083850312156110d557600080fd5b823567ffffffffffffffff8111156110ec57600080fd5b6110f885828601610f2c565b92505061110760208401610ed8565b90509250929050565b600181811c9082168061112457607f821691505b6020821081141561114557634e487b7160e01b600052602260045260246000fd5b50919050565b60208082526016908201527513db9b1e4810591b5a5b8810d85b88111bc8151a185d60521b604082015260600190565b634e487b7160e01b600052603260045260246000fd5b60006000198214156111b357634e487b7160e01b600052601160045260246000fd5b506001019056fea2646970667358221220288a985f64c536fadc8820ae7d9d04592b20920703a5517e5be8d20b4481642764736f6c634300080b0033",
  "immutableReferences": {},
  "source": "// SPDX-License-Identifier: MIT\npragma solidity >= 0.4.21;\n\nimport './Roles.sol';\n\ncontract Contract{\n\n    using Roles for Roles.Role;\n\n    Roles.Role private admin;\n    Roles.Role private doctor;\n    Roles.Role private patient;\n\n    struct Doctor{\n        string drHash;\n    }\n\n    struct Patient{\n        string patHash;\n    }\n\n    struct MedRec{\n        string RecordHash;\n    }\n\n    mapping(address => Doctor) Doctors;\n    mapping(address => Patient) Patients;\n    mapping(address => MedRec) Records;\n\n    address[] public Dr_ids;\n    address[] public Patient_ids;\n    string[] public RecordHashes;\n\n    address accountId;\n    address admin_id;\n    address get_patient_id;\n    address get_dr_id;\n\n    constructor() {\n        admin_id = msg.sender;\n        admin.add(admin_id);\n    }\n\n    //get Admin\n\n    function getAdmin() public view returns(address){\n        return admin_id;\n    }\n\n    /*\n    \n        Doctor\n    \n    */\n    //Add Doctor\n\n    function addDrInfo(address dr_id, string memory _drInfo_hash) public{\n        require(admin.has(msg.sender), 'Only For Doctor');\n\n        Doctor storage drInfo = Doctors[dr_id];\n        drInfo.drHash = _drInfo_hash;\n        Dr_ids.push(dr_id);\n\n        doctor.add(dr_id);\n    }\n\n    function updateInfo(address dr_id, string memory _drInfo_hash) public{\n        Doctor storage drInfo = Doctors[msg.sender];\n        drInfo.drHash = _drInfo_hash;\n        Dr_ids.push(dr_id);\n    }\n\n    function addDoctor(address _newdr) external onlyAdmin() {\n        doctor.add(_newdr);\n    }\n\n    function delDr(address _accid) external onlyAdmin(){\n        doctor.remove(_accid);\n    }\n\n    function get_drtid() public view returns(address){\n        return get_dr_id;\n    }\n\n    function search(address _id)public{\n        get_dr_id = _id;\n    }\n\n    function getDrInfo() public view returns(string memory){\n        return (Doctors[get_dr_id].drHash);\n    }\n\n    function getDr(address _id) public view returns(string memory){\n        return (Doctors[_id].drHash);\n    }\n\n    function isDr(address id) public view returns(string memory){\n        require(doctor.has(id), \"Only for Doctors\");\n        return \"1\";\n    }\n\n    function isDoctor(address id) public view returns(int){\n        // require(doctor.has(msg.sender), \"Only for Doctors\");\n        for(uint i=0;i<=Dr_ids.length;i++){\n            if(Dr_ids[i] == id){\n                return 1;\n            }\n        }\n        return 0;\n    }\n    \n    function getAllDrs() public view returns(address[] memory){\n        return(Dr_ids);\n    }\n\n    function getDoctorCount() public view returns(uint){\n        return(Dr_ids.length);\n    }\n\n    // function getAllDrDetails() onlyAdmin() public view returns(string[] memory) {\n    //     drIds = \n    //     return ['']\n    // }\n    /*\n            Patient\n    \n    */\n    function isPat(address id) public view returns(string memory){\n        require(patient.has(id), \"Only for Doctors\");\n        return \"1\";\n    }\n    // Check is patient\n    function isPatient(address id) public view returns(int){\n        for(uint i = 0 ;i<=Patient_ids.length;i++){\n            if(id == Patient_ids[i]){return 1;}\n        }\n        return 0;\n    }\n\n\n    function addPatient(address _newpatient) external onlyAdmin() {\n        patient.add(_newpatient);\n    }\n\n    function addRec(address _patid) external onlyDoctor() {\n        require(patient.has(_patid) == true, \"is not a Patient\");\n        get_patient_id = _patid;\n    }\n    function viewPatRec(address _patid) public{\n        get_patient_id = _patid;\n    }\n\n    function delPat(address _accid) external onlyAdmin(){\n        patient.remove(_accid);\n    }\n    function get() public view  returns(address){\n        return msg.sender;\n    }\n    function get_patid() public view returns(address){\n        return get_patient_id;\n    }\n    function getPatInfo(address iD)public view returns(string memory){\n        return (Patients[iD].patHash);\n    }\n    function addPatInfo(address pat_id, string memory _patInfoHash) public {\n        require(admin.has(msg.sender) == true, 'Only you Can Add your info ');\n        Patient storage patInfo = Patients[pat_id];\n        patInfo.patHash = _patInfoHash;\n        Patient_ids.push(msg.sender);\n\n        patient.add(pat_id);\n    }\n\n    /*\n    \n        Medical Records\n    \n    \n    */\n\n    function addMedRecord(string memory _recHash, address _pat_id) public{\n        require(doctor.has(msg.sender) == true, 'Only Doctor Can Do That');\n\n        MedRec storage record = Records[_pat_id];\n        record.RecordHash = _recHash;\n        RecordHashes.push(_recHash);\n    }\n\n    function viewMedRec(address id)public view returns(string memory){\n        // if(RecordHashes.has(Records[]) != )\n        return (Records[id].RecordHash);\n    }\n\n    /*\n        Modifiers\n    */\n\n\n    modifier onlyAdmin(){\n        require(admin.has(msg.sender) == true, 'Only Admin Can Do That');\n        _;\n    }\n    modifier onlyDoctor(){\n        require(doctor.has(msg.sender) == true, 'Only Doctor Can Do That');\n        _;\n    }\n    modifier onlyPatient(){\n        require(patient.has(msg.sender) == true, 'Only Admin Can Do That');\n        _;\n    }\n\n}",
  "sourcePath": "/home/shamil/Desktop/EHR_BLOCKCHAIN/ehr-2.0/contracts/Contract.sol",
  "compiler": {
    "name": "solc",
    "version": "0.8.11+commit.d7f03943.Emscripten.clang"
  },
  "schemaVersion": "3.4.4",
  "updatedAt": "2022-02-02T17:10:06.164Z",
  "networkType": "ethereum",
  "devdoc": {
    "kind": "dev",
    "methods": {},
    "version": 1
  },
  "userdoc": {
    "kind": "user",
    "methods": {},
    "version": 1
  }
}