{
  "contractName": "Contract",
  "abi": [
    {
      "inputs": [],
      "stateMutability": "nonpayable",
      "type": "constructor"
    },
    {
      "inputs": [
        {
          "internalType": "uint256",
          "name": "",
          "type": "uint256"
        }
      ],
      "name": "Dr_ids",
      "outputs": [
        {
          "internalType": "address",
          "name": "",
          "type": "address"
        }
      ],
      "stateMutability": "view",
      "type": "function"
    },
    {
      "inputs": [
        {
          "internalType": "uint256",
          "name": "",
          "type": "uint256"
        }
      ],
      "name": "Patient_ids",
      "outputs": [
        {
          "internalType": "address",
          "name": "",
          "type": "address"
        }
      ],
      "stateMutability": "view",
      "type": "function"
    },
    {
      "inputs": [
        {
          "internalType": "uint256",
          "name": "",
          "type": "uint256"
        }
      ],
      "name": "RecordHashes",
      "outputs": [
        {
          "internalType": "string",
          "name": "",
          "type": "string"
        }
      ],
      "stateMutability": "view",
      "type": "function"
    },
    {
      "inputs": [],
      "name": "getAdmin",
      "outputs": [
        {
          "internalType": "address",
          "name": "",
          "type": "address"
        }
      ],
      "stateMutability": "view",
      "type": "function"
    },
    {
      "inputs": [
        {
          "internalType": "address",
          "name": "dr_id",
          "type": "address"
        },
        {
          "internalType": "string",
          "name": "_drInfo_hash",
          "type": "string"
        }
      ],
      "name": "addDrInfo",
      "outputs": [],
      "stateMutability": "nonpayable",
      "type": "function"
    },
    {
      "inputs": [
        {
          "internalType": "address",
          "name": "dr_id",
          "type": "address"
        },
        {
          "internalType": "string",
          "name": "_drInfo_hash",
          "type": "string"
        }
      ],
      "name": "updateInfo",
      "outputs": [],
      "stateMutability": "nonpayable",
      "type": "function"
    },
    {
      "inputs": [
        {
          "internalType": "address",
          "name": "_newdr",
          "type": "address"
        }
      ],
      "name": "addDoctor",
      "outputs": [],
      "stateMutability": "nonpayable",
      "type": "function"
    },
    {
      "inputs": [
        {
          "internalType": "address",
          "name": "_accid",
          "type": "address"
        }
      ],
      "name": "delDr",
      "outputs": [],
      "stateMutability": "nonpayable",
      "type": "function"
    },
    {
      "inputs": [],
      "name": "get_drtid",
      "outputs": [
        {
          "internalType": "address",
          "name": "",
          "type": "address"
        }
      ],
      "stateMutability": "view",
      "type": "function"
    },
    {
      "inputs": [
        {
          "internalType": "address",
          "name": "_id",
          "type": "address"
        }
      ],
      "name": "search",
      "outputs": [],
      "stateMutability": "nonpayable",
      "type": "function"
    },
    {
      "inputs": [],
      "name": "getDrInfo",
      "outputs": [
        {
          "internalType": "string",
          "name": "",
          "type": "string"
        }
      ],
      "stateMutability": "view",
      "type": "function"
    },
    {
      "inputs": [
        {
          "internalType": "address",
          "name": "_id",
          "type": "address"
        }
      ],
      "name": "getDr",
      "outputs": [
        {
          "internalType": "string",
          "name": "",
          "type": "string"
        }
      ],
      "stateMutability": "view",
      "type": "function"
    },
    {
      "inputs": [
        {
          "internalType": "address",
          "name": "id",
          "type": "address"
        }
      ],
      "name": "isDr",
      "outputs": [
        {
          "internalType": "string",
          "name": "",
          "type": "string"
        }
      ],
      "stateMutability": "view",
      "type": "function"
    },
    {
      "inputs": [
        {
          "internalType": "uint256",
          "name": "i",
          "type": "uint256"
        }
      ],
      "name": "getAllDrs",
      "outputs": [
        {
          "internalType": "address",
          "name": "",
          "type": "address"
        }
      ],
      "stateMutability": "view",
      "type": "function"
    },
    {
      "inputs": [],
      "name": "getDoctorCount",
      "outputs": [
        {
          "internalType": "uint256",
          "name": "",
          "type": "uint256"
        }
      ],
      "stateMutability": "view",
      "type": "function"
    },
    {
      "inputs": [
        {
          "internalType": "address",
          "name": "id",
          "type": "address"
        }
      ],
      "name": "isPat",
      "outputs": [
        {
          "internalType": "string",
          "name": "",
          "type": "string"
        }
      ],
      "stateMutability": "view",
      "type": "function"
    },
    {
      "inputs": [
        {
          "internalType": "address",
          "name": "_newpatient",
          "type": "address"
        }
      ],
      "name": "addPatient",
      "outputs": [],
      "stateMutability": "nonpayable",
      "type": "function"
    },
    {
      "inputs": [
        {
          "internalType": "address",
          "name": "_patid",
          "type": "address"
        }
      ],
      "name": "addRec",
      "outputs": [],
      "stateMutability": "nonpayable",
      "type": "function"
    },
    {
      "inputs": [
        {
          "internalType": "address",
          "name": "_patid",
          "type": "address"
        }
      ],
      "name": "viewPatRec",
      "outputs": [],
      "stateMutability": "nonpayable",
      "type": "function"
    },
    {
      "inputs": [
        {
          "internalType": "address",
          "name": "_accid",
          "type": "address"
        }
      ],
      "name": "delPat",
      "outputs": [],
      "stateMutability": "nonpayable",
      "type": "function"
    },
    {
      "inputs": [],
      "name": "get",
      "outputs": [
        {
          "internalType": "address",
          "name": "",
          "type": "address"
        }
      ],
      "stateMutability": "view",
      "type": "function"
    },
    {
      "inputs": [],
      "name": "get_patid",
      "outputs": [
        {
          "internalType": "address",
          "name": "",
          "type": "address"
        }
      ],
      "stateMutability": "view",
      "type": "function"
    },
    {
      "inputs": [
        {
          "internalType": "address",
          "name": "iD",
          "type": "address"
        }
      ],
      "name": "getPatInfo",
      "outputs": [
        {
          "internalType": "string",
          "name": "",
          "type": "string"
        }
      ],
      "stateMutability": "view",
      "type": "function"
    },
    {
      "inputs": [
        {
          "internalType": "address",
          "name": "pat_id",
          "type": "address"
        },
        {
          "internalType": "string",
          "name": "_patInfoHash",
          "type": "string"
        }
      ],
      "name": "addPatInfo",
      "outputs": [],
      "stateMutability": "nonpayable",
      "type": "function"
    },
    {
      "inputs": [
        {
          "internalType": "string",
          "name": "_recHash",
          "type": "string"
        },
        {
          "internalType": "address",
          "name": "_pat_id",
          "type": "address"
        }
      ],
      "name": "addMedRecord",
      "outputs": [],
      "stateMutability": "nonpayable",
      "type": "function"
    },
    {
      "inputs": [],
      "name": "viewMedRec",
      "outputs": [
        {
          "internalType": "string",
          "name": "",
          "type": "string"
        }
      ],
      "stateMutability": "view",
      "type": "function"
    }
  ],
  "bytecode": "0x60806040523480156200001157600080fd5b5033600a60006101000a81548173ffffffffffffffffffffffffffffffffffffffff021916908373ffffffffffffffffffffffffffffffffffffffff16021790555062000090600a60009054906101000a900473ffffffffffffffffffffffffffffffffffffffff1660006200009660201b6200132e1790919060201c565b6200032f565b620000a882826200014960201b60201c565b15620000eb576040517f08c379a0000000000000000000000000000000000000000000000000000000008152600401620000e29062000275565b60405180910390fd5b60018260000160008373ffffffffffffffffffffffffffffffffffffffff1673ffffffffffffffffffffffffffffffffffffffff16815260200190815260200160002060006101000a81548160ff0219169083151502179055505050565b60008073ffffffffffffffffffffffffffffffffffffffff168273ffffffffffffffffffffffffffffffffffffffff161415620001bd576040517f08c379a0000000000000000000000000000000000000000000000000000000008152600401620001b4906200030d565b60405180910390fd5b8260000160008373ffffffffffffffffffffffffffffffffffffffff1673ffffffffffffffffffffffffffffffffffffffff16815260200190815260200160002060009054906101000a900460ff16905092915050565b600082825260208201905092915050565b7f526f6c65733a206163636f756e7420616c72656164792068617320726f6c6500600082015250565b60006200025d601f8362000214565b91506200026a8262000225565b602082019050919050565b6000602082019050818103600083015262000290816200024e565b9050919050565b7f526f6c65733a206163636f756e7420697320746865207a65726f20616464726560008201527f7373000000000000000000000000000000000000000000000000000000000000602082015250565b6000620002f560228362000214565b9150620003028262000297565b604082019050919050565b600060208201905081810360008301526200032881620002e6565b9050919050565b611ec4806200033f6000396000f3fe608060405234801561001057600080fd5b506004361061018e5760003560e01c80636d4ce63c116100de578063be95687311610097578063d2fce6cc11610071578063d2fce6cc14610493578063d4fd45c4146104af578063ddf8f98b146104df578063f1a1d7d5146104fd5761018e565b8063be95687314610403578063c979783f14610433578063cc572914146104635761018e565b80636d4ce63c1461033f5780636e9960c31461035d578063720d5b4b1461037b57806379111c1c146103ab57806392bed5ce146103c95780639fd06774146103e75761018e565b80634780468f1161014b57806358dae14f1161012557806358dae14f146102a75780635ea592b0146102d7578063657a2512146103075780636d263ceb146103235761018e565b80634780468f146102535780634fe6c9501461026f578063538b30ae1461028b5761018e565b8063047f66c31461019357806311f67285146101af57806313d65d3a146101cb57806317335a95146101e95780631c7fb129146102055780632f4a4dcb14610223575b600080fd5b6101ad60048036038101906101a8919061165a565b610519565b005b6101c960048036038101906101c491906117cd565b61055d565b005b6101d361068f565b6040516101e091906118b1565b60405180910390f35b61020360048036038101906101fe91906117cd565b610783565b005b61020d6108ae565b60405161021a91906118e2565b60405180910390f35b61023d60048036038101906102389190611933565b6108d8565b60405161024a91906118e2565b60405180910390f35b61026d6004803603810190610268919061165a565b610917565b005b6102896004803603810190610284919061165a565b610988565b005b6102a560048036038101906102a091906117cd565b6109f9565b005b6102c160048036038101906102bc9190611933565b610abd565b6040516102ce91906118b1565b60405180910390f35b6102f160048036038101906102ec9190611933565b610b69565b6040516102fe91906118e2565b60405180910390f35b610321600480360381019061031c919061165a565b610bb1565b005b61033d6004803603810190610338919061165a565b610bf5565b005b610347610c66565b60405161035491906118e2565b60405180910390f35b610365610c6e565b60405161037291906118e2565b60405180910390f35b6103956004803603810190610390919061165a565b610c98565b6040516103a291906118b1565b60405180910390f35b6103b3610d2a565b6040516103c0919061196f565b60405180910390f35b6103d1610d37565b6040516103de91906118b1565b60405180910390f35b61040160048036038101906103fc919061165a565b610e2b565b005b61041d6004803603810190610418919061165a565b610e9c565b60405161042a91906118b1565b60405180910390f35b61044d60048036038101906104489190611933565b610f2e565b60405161045a91906118e2565b60405180910390f35b61047d6004803603810190610478919061165a565b610f6d565b60405161048a91906118b1565b60405180910390f35b6104ad60048036038101906104a8919061165a565b611041565b005b6104c960048036038101906104c4919061165a565b611139565b6040516104d691906118b1565b60405180910390f35b6104e761120d565b6040516104f491906118e2565b60405180910390f35b6105176004803603810190610512919061198a565b611237565b005b80600b60006101000a81548173ffffffffffffffffffffffffffffffffffffffff021916908373ffffffffffffffffffffffffffffffffffffffff16021790555050565b600115156105753360006113d690919063ffffffff16565b1515146105b7576040517f08c379a00000000000000000000000000000000000000000000000000000000081526004016105ae90611a32565b60405180910390fd5b6000600460003373ffffffffffffffffffffffffffffffffffffffff1673ffffffffffffffffffffffffffffffffffffffff168152602001908152602001600020905081816000019080519060200190610612929190611545565b506007339080600181540180825580915050600190039060005260206000200160009091909190916101000a81548173ffffffffffffffffffffffffffffffffffffffff021916908373ffffffffffffffffffffffffffffffffffffffff16021790555061068a83600261132e90919063ffffffff16565b505050565b606060056000600b60009054906101000a900473ffffffffffffffffffffffffffffffffffffffff1673ffffffffffffffffffffffffffffffffffffffff1673ffffffffffffffffffffffffffffffffffffffff168152602001908152602001600020600001805461070090611a81565b80601f016020809104026020016040519081016040528092919081815260200182805461072c90611a81565b80156107795780601f1061074e57610100808354040283529160200191610779565b820191906000526020600020905b81548152906001019060200180831161075c57829003601f168201915b5050505050905090565b6107973360006113d690919063ffffffff16565b6107d6576040517f08c379a00000000000000000000000000000000000000000000000000000000081526004016107cd90611aff565b60405180910390fd5b6000600360008473ffffffffffffffffffffffffffffffffffffffff1673ffffffffffffffffffffffffffffffffffffffff168152602001908152602001600020905081816000019080519060200190610831929190611545565b506006839080600181540180825580915050600190039060005260206000200160009091909190916101000a81548173ffffffffffffffffffffffffffffffffffffffff021916908373ffffffffffffffffffffffffffffffffffffffff1602179055506108a983600161132e90919063ffffffff16565b505050565b6000600c60009054906101000a900473ffffffffffffffffffffffffffffffffffffffff16905090565b600781815481106108e857600080fd5b906000526020600020016000915054906101000a900473ffffffffffffffffffffffffffffffffffffffff1681565b6001151561092f3360006113d690919063ffffffff16565b151514610971576040517f08c379a000000000000000000000000000000000000000000000000000000000815260040161096890611b6b565b60405180910390fd5b61098581600161132e90919063ffffffff16565b50565b600115156109a03360006113d690919063ffffffff16565b1515146109e2576040517f08c379a00000000000000000000000000000000000000000000000000000000081526004016109d990611b6b565b60405180910390fd5b6109f681600161149e90919063ffffffff16565b50565b6000600360003373ffffffffffffffffffffffffffffffffffffffff1673ffffffffffffffffffffffffffffffffffffffff168152602001908152602001600020905081816000019080519060200190610a54929190611545565b506006839080600181540180825580915050600190039060005260206000200160009091909190916101000a81548173ffffffffffffffffffffffffffffffffffffffff021916908373ffffffffffffffffffffffffffffffffffffffff160217905550505050565b60088181548110610acd57600080fd5b906000526020600020016000915090508054610ae890611a81565b80601f0160208091040260200160405190810160405280929190818152602001828054610b1490611a81565b8015610b615780601f10610b3657610100808354040283529160200191610b61565b820191906000526020600020905b815481529060010190602001808311610b4457829003601f168201915b505050505081565b600060068281548110610b7f57610b7e611b8b565b5b9060005260206000200160009054906101000a900473ffffffffffffffffffffffffffffffffffffffff169050919050565b80600c60006101000a81548173ffffffffffffffffffffffffffffffffffffffff021916908373ffffffffffffffffffffffffffffffffffffffff16021790555050565b60011515610c0d3360006113d690919063ffffffff16565b151514610c4f576040517f08c379a0000000000000000000000000000000000000000000000000000000008152600401610c4690611b6b565b60405180910390fd5b610c6381600261132e90919063ffffffff16565b50565b600033905090565b6000600a60009054906101000a900473ffffffffffffffffffffffffffffffffffffffff16905090565b6060610cae8260026113d690919063ffffffff16565b610ced576040517f08c379a0000000000000000000000000000000000000000000000000000000008152600401610ce490611c06565b60405180910390fd5b6040518060400160405280600181526020017f31000000000000000000000000000000000000000000000000000000000000008152509050919050565b6000600680549050905090565b606060036000600c60009054906101000a900473ffffffffffffffffffffffffffffffffffffffff1673ffffffffffffffffffffffffffffffffffffffff1673ffffffffffffffffffffffffffffffffffffffff1681526020019081526020016000206000018054610da890611a81565b80601f0160208091040260200160405190810160405280929190818152602001828054610dd490611a81565b8015610e215780601f10610df657610100808354040283529160200191610e21565b820191906000526020600020905b815481529060010190602001808311610e0457829003601f168201915b5050505050905090565b60011515610e433360006113d690919063ffffffff16565b151514610e85576040517f08c379a0000000000000000000000000000000000000000000000000000000008152600401610e7c90611b6b565b60405180910390fd5b610e9981600261149e90919063ffffffff16565b50565b6060610eb28260016113d690919063ffffffff16565b610ef1576040517f08c379a0000000000000000000000000000000000000000000000000000000008152600401610ee890611c06565b60405180910390fd5b6040518060400160405280600181526020017f31000000000000000000000000000000000000000000000000000000000000008152509050919050565b60068181548110610f3e57600080fd5b906000526020600020016000915054906101000a900473ffffffffffffffffffffffffffffffffffffffff1681565b6060600460008373ffffffffffffffffffffffffffffffffffffffff1673ffffffffffffffffffffffffffffffffffffffff1681526020019081526020016000206000018054610fbc90611a81565b80601f0160208091040260200160405190810160405280929190818152602001828054610fe890611a81565b80156110355780601f1061100a57610100808354040283529160200191611035565b820191906000526020600020905b81548152906001019060200180831161101857829003601f168201915b50505050509050919050565b600115156110593360016113d690919063ffffffff16565b15151461109b576040517f08c379a000000000000000000000000000000000000000000000000000000000815260040161109290611c72565b60405180910390fd5b600115156110b38260026113d690919063ffffffff16565b1515146110f5576040517f08c379a00000000000000000000000000000000000000000000000000000000081526004016110ec90611cde565b60405180910390fd5b80600b60006101000a81548173ffffffffffffffffffffffffffffffffffffffff021916908373ffffffffffffffffffffffffffffffffffffffff16021790555050565b6060600360008373ffffffffffffffffffffffffffffffffffffffff1673ffffffffffffffffffffffffffffffffffffffff168152602001908152602001600020600001805461118890611a81565b80601f01602080910402602001604051908101604052809291908181526020018280546111b490611a81565b80156112015780601f106111d657610100808354040283529160200191611201565b820191906000526020600020905b8154815290600101906020018083116111e457829003601f168201915b50505050509050919050565b6000600b60009054906101000a900473ffffffffffffffffffffffffffffffffffffffff16905090565b6001151561124f3360016113d690919063ffffffff16565b151514611291576040517f08c379a000000000000000000000000000000000000000000000000000000000815260040161128890611c72565b60405180910390fd5b6000600560008373ffffffffffffffffffffffffffffffffffffffff1673ffffffffffffffffffffffffffffffffffffffff1681526020019081526020016000209050828160000190805190602001906112ec929190611545565b50600883908060018154018082558091505060019003906000526020600020016000909190919091509080519060200190611328929190611545565b50505050565b61133882826113d6565b15611378576040517f08c379a000000000000000000000000000000000000000000000000000000000815260040161136f90611d4a565b60405180910390fd5b60018260000160008373ffffffffffffffffffffffffffffffffffffffff1673ffffffffffffffffffffffffffffffffffffffff16815260200190815260200160002060006101000a81548160ff0219169083151502179055505050565b60008073ffffffffffffffffffffffffffffffffffffffff168273ffffffffffffffffffffffffffffffffffffffff161415611447576040517f08c379a000000000000000000000000000000000000000000000000000000000815260040161143e90611ddc565b60405180910390fd5b8260000160008373ffffffffffffffffffffffffffffffffffffffff1673ffffffffffffffffffffffffffffffffffffffff16815260200190815260200160002060009054906101000a900460ff16905092915050565b6114a882826113d6565b6114e7576040517f08c379a00000000000000000000000000000000000000000000000000000000081526004016114de90611e6e565b60405180910390fd5b60008260000160008373ffffffffffffffffffffffffffffffffffffffff1673ffffffffffffffffffffffffffffffffffffffff16815260200190815260200160002060006101000a81548160ff0219169083151502179055505050565b82805461155190611a81565b90600052602060002090601f01602090048101928261157357600085556115ba565b82601f1061158c57805160ff19168380011785556115ba565b828001600101855582156115ba579182015b828111156115b957825182559160200191906001019061159e565b5b5090506115c791906115cb565b5090565b5b808211156115e45760008160009055506001016115cc565b5090565b6000604051905090565b600080fd5b600080fd5b600073ffffffffffffffffffffffffffffffffffffffff82169050919050565b6000611627826115fc565b9050919050565b6116378161161c565b811461164257600080fd5b50565b6000813590506116548161162e565b92915050565b6000602082840312156116705761166f6115f2565b5b600061167e84828501611645565b91505092915050565b600080fd5b600080fd5b6000601f19601f8301169050919050565b7f4e487b7100000000000000000000000000000000000000000000000000000000600052604160045260246000fd5b6116da82611691565b810181811067ffffffffffffffff821117156116f9576116f86116a2565b5b80604052505050565b600061170c6115e8565b905061171882826116d1565b919050565b600067ffffffffffffffff821115611738576117376116a2565b5b61174182611691565b9050602081019050919050565b82818337600083830152505050565b600061177061176b8461171d565b611702565b90508281526020810184848401111561178c5761178b61168c565b5b61179784828561174e565b509392505050565b600082601f8301126117b4576117b3611687565b5b81356117c484826020860161175d565b91505092915050565b600080604083850312156117e4576117e36115f2565b5b60006117f285828601611645565b925050602083013567ffffffffffffffff811115611813576118126115f7565b5b61181f8582860161179f565b9150509250929050565b600081519050919050565b600082825260208201905092915050565b60005b83811015611863578082015181840152602081019050611848565b83811115611872576000848401525b50505050565b600061188382611829565b61188d8185611834565b935061189d818560208601611845565b6118a681611691565b840191505092915050565b600060208201905081810360008301526118cb8184611878565b905092915050565b6118dc8161161c565b82525050565b60006020820190506118f760008301846118d3565b92915050565b6000819050919050565b611910816118fd565b811461191b57600080fd5b50565b60008135905061192d81611907565b92915050565b600060208284031215611949576119486115f2565b5b60006119578482850161191e565b91505092915050565b611969816118fd565b82525050565b60006020820190506119846000830184611960565b92915050565b600080604083850312156119a1576119a06115f2565b5b600083013567ffffffffffffffff8111156119bf576119be6115f7565b5b6119cb8582860161179f565b92505060206119dc85828601611645565b9150509250929050565b7f4f6e6c7920796f752043616e2041646420796f757220696e666f200000000000600082015250565b6000611a1c601b83611834565b9150611a27826119e6565b602082019050919050565b60006020820190508181036000830152611a4b81611a0f565b9050919050565b7f4e487b7100000000000000000000000000000000000000000000000000000000600052602260045260246000fd5b60006002820490506001821680611a9957607f821691505b60208210811415611aad57611aac611a52565b5b50919050565b7f4f6e6c7920466f7220446f63746f720000000000000000000000000000000000600082015250565b6000611ae9600f83611834565b9150611af482611ab3565b602082019050919050565b60006020820190508181036000830152611b1881611adc565b9050919050565b7f4f6e6c792041646d696e2043616e20446f205468617400000000000000000000600082015250565b6000611b55601683611834565b9150611b6082611b1f565b602082019050919050565b60006020820190508181036000830152611b8481611b48565b9050919050565b7f4e487b7100000000000000000000000000000000000000000000000000000000600052603260045260246000fd5b7f4f6e6c7920666f7220446f63746f727300000000000000000000000000000000600082015250565b6000611bf0601083611834565b9150611bfb82611bba565b602082019050919050565b60006020820190508181036000830152611c1f81611be3565b9050919050565b7f4f6e6c7920446f63746f722043616e20446f2054686174000000000000000000600082015250565b6000611c5c601783611834565b9150611c6782611c26565b602082019050919050565b60006020820190508181036000830152611c8b81611c4f565b9050919050565b7f6973206e6f7420612050617469656e7400000000000000000000000000000000600082015250565b6000611cc8601083611834565b9150611cd382611c92565b602082019050919050565b60006020820190508181036000830152611cf781611cbb565b9050919050565b7f526f6c65733a206163636f756e7420616c72656164792068617320726f6c6500600082015250565b6000611d34601f83611834565b9150611d3f82611cfe565b602082019050919050565b60006020820190508181036000830152611d6381611d27565b9050919050565b7f526f6c65733a206163636f756e7420697320746865207a65726f20616464726560008201527f7373000000000000000000000000000000000000000000000000000000000000602082015250565b6000611dc6602283611834565b9150611dd182611d6a565b604082019050919050565b60006020820190508181036000830152611df581611db9565b9050919050565b7f526f6c65733a206163636f756e7420646f6573206e6f74206861766520726f6c60008201527f6500000000000000000000000000000000000000000000000000000000000000602082015250565b6000611e58602183611834565b9150611e6382611dfc565b604082019050919050565b60006020820190508181036000830152611e8781611e4b565b905091905056fea26469706673582212201e71a7540c85d8801004ee4d890b213df50a9fb238d95e7c208a1f8fcee0a3f664736f6c634300080b0033",
  "immutableReferences": {},
  "source": "pragma solidity >= 0.4.21;\n\nimport './Roles.sol';\n\ncontract Contract{\n\n    using Roles for Roles.Role;\n\n    Roles.Role private admin;\n    Roles.Role private doctor;\n    Roles.Role private patient;\n\n    struct Doctor{\n        string drHash;\n    }\n\n    struct Patient{\n        string patHash;\n    }\n\n    struct MedRec{\n        string RecordHash;\n    }\n\n    mapping(address => Doctor) Doctors;\n    mapping(address => Patient) Patients;\n    mapping(address => MedRec) Records;\n\n    address[] public Dr_ids;\n    address[] public Patient_ids;\n    string[] public RecordHashes;\n\n    address accountId;\n    address admin_id;\n    address get_patient_id;\n    address get_dr_id;\n\n    constructor() {\n        admin_id = msg.sender;\n        admin.add(admin_id);\n    }\n\n    //get Admin\n\n    function getAdmin() public view returns(address){\n        return admin_id;\n    }\n\n    /*\n    \n        Doctor\n    \n    */\n    //Add Doctor\n\n    function addDrInfo(address dr_id, string memory _drInfo_hash) public{\n        require(admin.has(msg.sender), 'Only For Doctor');\n\n        Doctor storage drInfo = Doctors[dr_id];\n        drInfo.drHash = _drInfo_hash;\n        Dr_ids.push(dr_id);\n\n        doctor.add(dr_id);\n    }\n\n    function updateInfo(address dr_id, string memory _drInfo_hash) public{\n        Doctor storage drInfo = Doctors[msg.sender];\n        drInfo.drHash = _drInfo_hash;\n        Dr_ids.push(dr_id);\n    }\n\n    function addDoctor(address _newdr) external onlyAdmin() {\n        doctor.add(_newdr);\n    }\n\n    function delDr(address _accid) external onlyAdmin(){\n        doctor.remove(_accid);\n    }\n\n    function get_drtid() public view returns(address){\n        return get_dr_id;\n    }\n\n    function search(address _id)public{\n        get_dr_id = _id;\n    }\n\n    function getDrInfo() public view returns(string memory){\n        return (Doctors[get_dr_id].drHash);\n    }\n\n    function getDr(address _id) public view returns(string memory){\n        return (Doctors[_id].drHash);\n    }\n\n    function isDr(address id) public view returns(string memory){\n        require(doctor.has(id), \"Only for Doctors\");\n        return \"1\";\n    }\n    \n    function getAllDrs(uint i) public view returns(address){\n        // uint i = 0;\n        // for (i = 0; i <= Dr_ids.length; i++) {\n        //     return (Dr_ids[i]);\n        // }\n        return(Dr_ids[i]);\n    }\n\n    function getDoctorCount() public view returns(uint){\n        return(Dr_ids.length);\n    }\n    /*\n            Patient\n    \n    */\n    function isPat(address id) public view returns(string memory){\n        require(patient.has(id), \"Only for Doctors\");\n        return \"1\";\n    }\n    function addPatient(address _newpatient) external onlyAdmin() {\n        patient.add(_newpatient);\n    }\n\n    function addRec(address _patid) external onlyDoctor() {\n        require(patient.has(_patid) == true, \"is not a Patient\");\n        get_patient_id = _patid;\n    }\n    function viewPatRec(address _patid) public{\n        get_patient_id = _patid;\n    }\n\n    function delPat(address _accid) external onlyAdmin(){\n        patient.remove(_accid);\n    }\n    function get() public view  returns(address){\n        return msg.sender;\n    }\n    function get_patid() public view returns(address){\n        return get_patient_id;\n    }\n    function getPatInfo(address iD)public view returns(string memory){\n        return (Patients[iD].patHash);\n    }\n    function addPatInfo(address pat_id, string memory _patInfoHash) public {\n        require(admin.has(msg.sender) == true, 'Only you Can Add your info ');\n        Patient storage patInfo = Patients[msg.sender];\n        patInfo.patHash = _patInfoHash;\n        Patient_ids.push(msg.sender);\n\n        patient.add(pat_id);\n    }\n\n    /*\n    \n        Medical Records\n    \n    \n    */\n\n    function addMedRecord(string memory _recHash, address _pat_id) public{\n        require(doctor.has(msg.sender) == true, 'Only Doctor Can Do That');\n\n        MedRec storage record = Records[_pat_id];\n        record.RecordHash = _recHash;\n        RecordHashes.push(_recHash);\n    }\n\n    function viewMedRec()public view returns(string memory){\n        return (Records[get_patient_id].RecordHash);\n    }\n\n    /*\n        Modifiers\n    */\n\n\n    modifier onlyAdmin(){\n        require(admin.has(msg.sender) == true, 'Only Admin Can Do That');\n        _;\n    }\n    modifier onlyDoctor(){\n        require(doctor.has(msg.sender) == true, 'Only Doctor Can Do That');\n        _;\n    }\n    modifier onlyPatient(){\n        require(patient.has(msg.sender) == true, 'Only Admin Can Do That');\n        _;\n    }\n\n}",
  "sourcePath": "/home/shamil/Desktop/EHR_BLOCKCHAIN/ehr-2.0/contracts/Main.sol",
  "compiler": {
    "name": "solc",
    "version": "0.8.11+commit.d7f03943.Emscripten.clang"
  },
  "schemaVersion": "3.4.4",
  "updatedAt": "2022-01-17T16:56:30.535Z",
  "devdoc": {
    "kind": "dev",
    "methods": {},
    "version": 1
  },
  "userdoc": {
    "kind": "user",
    "methods": {},
    "version": 1
  }
}