{
  "contractName": "Contract",
  "abi": [
    {
      "inputs": [],
      "stateMutability": "nonpayable",
      "type": "constructor"
    },
    {
      "inputs": [
        {
          "internalType": "uint256",
          "name": "",
          "type": "uint256"
        }
      ],
      "name": "Dr_ids",
      "outputs": [
        {
          "internalType": "address",
          "name": "",
          "type": "address"
        }
      ],
      "stateMutability": "view",
      "type": "function",
      "constant": true
    },
    {
      "inputs": [
        {
          "internalType": "uint256",
          "name": "",
          "type": "uint256"
        }
      ],
      "name": "Patient_ids",
      "outputs": [
        {
          "internalType": "address",
          "name": "",
          "type": "address"
        }
      ],
      "stateMutability": "view",
      "type": "function",
      "constant": true
    },
    {
      "inputs": [
        {
          "internalType": "uint256",
          "name": "",
          "type": "uint256"
        }
      ],
      "name": "RecordHashes",
      "outputs": [
        {
          "internalType": "string",
          "name": "",
          "type": "string"
        }
      ],
      "stateMutability": "view",
      "type": "function",
      "constant": true
    },
    {
      "inputs": [],
      "name": "getAdmin",
      "outputs": [
        {
          "internalType": "address",
          "name": "",
          "type": "address"
        }
      ],
      "stateMutability": "view",
      "type": "function",
      "constant": true
    },
    {
      "inputs": [
        {
          "internalType": "address",
          "name": "_newdr",
          "type": "address"
        }
      ],
      "name": "addDoctor",
      "outputs": [],
      "stateMutability": "nonpayable",
      "type": "function"
    },
    {
      "inputs": [
        {
          "internalType": "address",
          "name": "dr_id",
          "type": "address"
        },
        {
          "internalType": "string",
          "name": "_drInfo_hash",
          "type": "string"
        }
      ],
      "name": "addDrInfo",
      "outputs": [],
      "stateMutability": "nonpayable",
      "type": "function"
    },
    {
      "inputs": [],
      "name": "getAllDrs",
      "outputs": [
        {
          "internalType": "address[]",
          "name": "",
          "type": "address[]"
        }
      ],
      "stateMutability": "view",
      "type": "function",
      "constant": true
    },
    {
      "inputs": [
        {
          "internalType": "address",
          "name": "_id",
          "type": "address"
        }
      ],
      "name": "getDr",
      "outputs": [
        {
          "internalType": "string",
          "name": "",
          "type": "string"
        }
      ],
      "stateMutability": "view",
      "type": "function",
      "constant": true
    },
    {
      "inputs": [
        {
          "internalType": "address",
          "name": "id",
          "type": "address"
        }
      ],
      "name": "isDr",
      "outputs": [
        {
          "internalType": "string",
          "name": "",
          "type": "string"
        }
      ],
      "stateMutability": "view",
      "type": "function",
      "constant": true
    },
    {
      "inputs": [
        {
          "internalType": "address",
          "name": "id",
          "type": "address"
        }
      ],
      "name": "isPat",
      "outputs": [
        {
          "internalType": "string",
          "name": "",
          "type": "string"
        }
      ],
      "stateMutability": "view",
      "type": "function",
      "constant": true
    },
    {
      "inputs": [
        {
          "internalType": "address",
          "name": "id",
          "type": "address"
        }
      ],
      "name": "viewMedRec",
      "outputs": [
        {
          "internalType": "string",
          "name": "",
          "type": "string"
        }
      ],
      "stateMutability": "view",
      "type": "function",
      "constant": true
    }
  ],
  "bytecode": "0x608060405234801561001057600080fd5b50600a8054336001600160a01b0319909116811790915561003e90600090610043602090811b61055a17901c565b610147565b61004d82826100c4565b1561009f5760405162461bcd60e51b815260206004820152601f60248201527f526f6c65733a206163636f756e7420616c72656164792068617320726f6c650060448201526064015b60405180910390fd5b6001600160a01b0316600090815260209190915260409020805460ff19166001179055565b60006001600160a01b0382166101275760405162461bcd60e51b815260206004820152602260248201527f526f6c65733a206163636f756e7420697320746865207a65726f206164647265604482015261737360f01b6064820152608401610096565b506001600160a01b03166000908152602091909152604090205460ff1690565b610934806101566000396000f3fe608060405234801561001057600080fd5b50600436106100a95760003560e01c806358dae14f1161007157806358dae14f1461013f5780636e9960c314610152578063720d5b4b14610163578063be95687314610176578063c979783f14610189578063d4fd45c41461019c57600080fd5b806317335a95146100ae5780631da3e2dc146100c35780632f4a4dcb146100e15780633c52554b1461010c5780634780468f1461012c575b600080fd5b6100c16100bc366004610724565b6101af565b005b6100cb610273565b6040516100d891906107e6565b60405180910390f35b6100f46100ef366004610833565b6102d5565b6040516001600160a01b0390911681526020016100d8565b61011f61011a36600461084c565b6102ff565b6040516100d8919061086e565b6100c161013a36600461084c565b6103ab565b61011f61014d366004610833565b610401565b600a546001600160a01b03166100f4565b61011f61017136600461084c565b6104ad565b61011f61018436600461084c565b610516565b6100f4610197366004610833565b610523565b61011f6101aa36600461084c565b610533565b6101ba6000336105d6565b6101fc5760405162461bcd60e51b815260206004820152600e60248201526d27b7363c902337b91020b236b4b760911b60448201526064015b60405180910390fd5b33600090815260036020908152604090912082519091610220918391850190610659565b5060068054600181810183556000929092527ff652222313e28459528d920b65115c16c04f3efc82aaedc97be59f3f377c0d3f0180546001600160a01b0319163317905561026e908461055a565b505050565b606060068054806020026020016040519081016040528092919081815260200182805480156102cb57602002820191906000526020600020905b81546001600160a01b031681526001909101906020018083116102ad575b5050505050905090565b600781815481106102e557600080fd5b6000918252602090912001546001600160a01b0316905081565b6001600160a01b0381166000908152600560205260409020805460609190610326906108c3565b80601f0160208091040260200160405190810160405280929190818152602001828054610352906108c3565b801561039f5780601f106103745761010080835404028352916020019161039f565b820191906000526020600020905b81548152906001019060200180831161038257829003601f168201915b50505050509050919050565b6103b66000336105d6565b6103f35760405162461bcd60e51b815260206004820152600e60248201526d27b7363c902337b91020b236b4b760911b60448201526064016101f3565b6103fe60018261055a565b50565b6008818154811061041157600080fd5b90600052602060002001600091509050805461042c906108c3565b80601f0160208091040260200160405190810160405280929190818152602001828054610458906108c3565b80156104a55780601f1061047a576101008083540402835291602001916104a5565b820191906000526020600020905b81548152906001019060200180831161048857829003601f168201915b505050505081565b60606104ba6002836105d6565b6104f95760405162461bcd60e51b815260206004820152601060248201526f4f6e6c7920666f7220446f63746f727360801b60448201526064016101f3565b50506040805180820190915260018152603160f81b602082015290565b60606104ba6001836105d6565b600681815481106102e557600080fd5b6001600160a01b0381166000908152600360205260409020805460609190610326906108c3565b61056482826105d6565b156105b15760405162461bcd60e51b815260206004820152601f60248201527f526f6c65733a206163636f756e7420616c72656164792068617320726f6c650060448201526064016101f3565b6001600160a01b0316600090815260209190915260409020805460ff19166001179055565b60006001600160a01b0382166106395760405162461bcd60e51b815260206004820152602260248201527f526f6c65733a206163636f756e7420697320746865207a65726f206164647265604482015261737360f01b60648201526084016101f3565b506001600160a01b03166000908152602091909152604090205460ff1690565b828054610665906108c3565b90600052602060002090601f01602090048101928261068757600085556106cd565b82601f106106a057805160ff19168380011785556106cd565b828001600101855582156106cd579182015b828111156106cd5782518255916020019190600101906106b2565b506106d99291506106dd565b5090565b5b808211156106d957600081556001016106de565b80356001600160a01b038116811461070957600080fd5b919050565b634e487b7160e01b600052604160045260246000fd5b6000806040838503121561073757600080fd5b610740836106f2565b9150602083013567ffffffffffffffff8082111561075d57600080fd5b818501915085601f83011261077157600080fd5b8135818111156107835761078361070e565b604051601f8201601f19908116603f011681019083821181831017156107ab576107ab61070e565b816040528281528860208487010111156107c457600080fd5b8260208601602083013760006020848301015280955050505050509250929050565b6020808252825182820181905260009190848201906040850190845b818110156108275783516001600160a01b031683529284019291840191600101610802565b50909695505050505050565b60006020828403121561084557600080fd5b5035919050565b60006020828403121561085e57600080fd5b610867826106f2565b9392505050565b600060208083528351808285015260005b8181101561089b5785810183015185820160400152820161087f565b818111156108ad576000604083870101525b50601f01601f1916929092016040019392505050565b600181811c908216806108d757607f821691505b602082108114156108f857634e487b7160e01b600052602260045260246000fd5b5091905056fea2646970667358221220c364fe3de8513a73948bfd5dc6023b1a7d28f2a25a56452800daa8c3192b697a64736f6c634300080b0033",
  "immutableReferences": {},
  "source": "// SPDX-License-Identifier: MIT\r\npragma solidity >= 0.4.21;\r\n\r\nimport './Roles.sol';\r\n\r\ncontract Contract{\r\n\r\n    using Roles for Roles.Role;\r\n\r\n    Roles.Role private admin;\r\n    Roles.Role private doctor;\r\n    Roles.Role private patient;\r\n\r\n    struct Doctor{\r\n        string drHash;\r\n    }\r\n\r\n    struct Patient{\r\n        string patHash;\r\n    }\r\n\r\n    struct MedRec{\r\n        string RecordHash;\r\n    }\r\n\r\n    mapping(address => Doctor) Doctors;\r\n    mapping(address => Patient) Patients;\r\n    mapping(address => MedRec) Records;\r\n\r\n    address[] public Dr_ids;\r\n    address[] public Patient_ids;\r\n    string[] public RecordHashes;\r\n\r\n    address accountId;\r\n    address admin_id;\r\n    address get_patient_id;\r\n    address get_dr_id;\r\n\r\n    constructor() {\r\n        admin_id = msg.sender;\r\n        admin.add(admin_id);\r\n    }\r\n\r\n    //get Admin\r\n\r\n    function getAdmin() public view returns(address){\r\n        return admin_id;\r\n    }\r\n\r\n\r\n    //Add Doctor\r\n\r\n    function addDoctor(address _newdr) public{\r\n        require(admin.has(msg.sender), 'Only For Admin'); \r\n        doctor.add(_newdr);\r\n    }\r\n\r\n    function addDrInfo(address dr_id,string memory _drInfo_hash) public{\r\n        require(admin.has(msg.sender),'Only For Admin');\r\n\r\n        Doctor storage drInfo = Doctors[msg.sender];\r\n        drInfo.drHash = _drInfo_hash;\r\n        Dr_ids.push(msg.sender);\r\n\r\n        doctor.add(dr_id);\r\n    }\r\n\r\n    function getAllDrs() public view returns(address[] memory){\r\n        return Dr_ids;\r\n    }\r\n\r\n    function getDr(address _id) public view returns(string memory){\r\n        return (Doctors[_id].drHash);\r\n    }\r\n\r\n   // check is Doctor\r\n\r\n    function isDr(address id) public view returns(string memory){\r\n        require(doctor.has(id), \"Only for Doctors\");\r\n        return \"1\";\r\n    }\r\n\r\n    // Check is Patient\r\n\r\n    function isPat(address id) public view returns(string memory){\r\n        require(patient.has(id), \"Only for Doctors\");\r\n        return \"1\";\r\n    }\r\n\r\n   \r\n\r\n    // View Medical record return IPFS hash of record\r\n    \r\n    function viewMedRec(address id)public view returns(string memory){\r\n        return (Records[id].RecordHash);\r\n    }\r\n\r\n    /*\r\n        Modifiers\r\n    */\r\n\r\n\r\n    modifier onlyAdmin(){\r\n        require(admin.has(msg.sender) == true, 'Only Admin Can Do That');\r\n        _;\r\n    }\r\n    modifier onlyDoctor(){\r\n        require(doctor.has(msg.sender) == true, 'Only Doctor Can Do That');\r\n        _;\r\n    }\r\n    modifier onlyPatient(){\r\n        require(patient.has(msg.sender) == true, 'Only Admin Can Do That');\r\n        _;\r\n    }\r\n\r\n}",
  "sourcePath": "C:\\Users\\shami\\Desktop\\EHR 1.0\\ehr-blockchain\\contracts\\Contract.sol",
  "compiler": {
    "name": "solc",
    "version": "0.8.11+commit.d7f03943.Emscripten.clang"
  },
  "schemaVersion": "3.4.4",
  "updatedAt": "2022-05-03T05:23:56.274Z",
  "networkType": "ethereum",
  "devdoc": {
    "kind": "dev",
    "methods": {},
    "version": 1
  },
  "userdoc": {
    "kind": "user",
    "methods": {},
    "version": 1
  }
}