{
  "contractName": "Contract",
  "abi": [
    {
      "inputs": [],
      "stateMutability": "nonpayable",
      "type": "constructor"
    },
    {
      "inputs": [
        {
          "internalType": "uint256",
          "name": "",
          "type": "uint256"
        }
      ],
      "name": "Dr_ids",
      "outputs": [
        {
          "internalType": "address",
          "name": "",
          "type": "address"
        }
      ],
      "stateMutability": "view",
      "type": "function",
      "constant": true
    },
    {
      "inputs": [
        {
          "internalType": "uint256",
          "name": "",
          "type": "uint256"
        }
      ],
      "name": "Patient_ids",
      "outputs": [
        {
          "internalType": "address",
          "name": "",
          "type": "address"
        }
      ],
      "stateMutability": "view",
      "type": "function",
      "constant": true
    },
    {
      "inputs": [
        {
          "internalType": "uint256",
          "name": "",
          "type": "uint256"
        }
      ],
      "name": "RecordHashes",
      "outputs": [
        {
          "internalType": "string",
          "name": "",
          "type": "string"
        }
      ],
      "stateMutability": "view",
      "type": "function",
      "constant": true
    },
    {
      "inputs": [],
      "name": "getAdmin",
      "outputs": [
        {
          "internalType": "address",
          "name": "",
          "type": "address"
        }
      ],
      "stateMutability": "view",
      "type": "function",
      "constant": true
    },
    {
      "inputs": [
        {
          "internalType": "address",
          "name": "dr_id",
          "type": "address"
        },
        {
          "internalType": "string",
          "name": "_drInfo_hash",
          "type": "string"
        }
      ],
      "name": "addDrInfo",
      "outputs": [],
      "stateMutability": "nonpayable",
      "type": "function"
    },
    {
      "inputs": [
        {
          "internalType": "address",
          "name": "dr_id",
          "type": "address"
        },
        {
          "internalType": "string",
          "name": "_drInfo_hash",
          "type": "string"
        }
      ],
      "name": "updateInfo",
      "outputs": [],
      "stateMutability": "nonpayable",
      "type": "function"
    },
    {
      "inputs": [
        {
          "internalType": "address",
          "name": "_newdr",
          "type": "address"
        }
      ],
      "name": "addDoctor",
      "outputs": [],
      "stateMutability": "nonpayable",
      "type": "function"
    },
    {
      "inputs": [
        {
          "internalType": "address",
          "name": "_accid",
          "type": "address"
        }
      ],
      "name": "delDr",
      "outputs": [],
      "stateMutability": "nonpayable",
      "type": "function"
    },
    {
      "inputs": [],
      "name": "get_drtid",
      "outputs": [
        {
          "internalType": "address",
          "name": "",
          "type": "address"
        }
      ],
      "stateMutability": "view",
      "type": "function",
      "constant": true
    },
    {
      "inputs": [
        {
          "internalType": "address",
          "name": "_id",
          "type": "address"
        }
      ],
      "name": "search",
      "outputs": [],
      "stateMutability": "nonpayable",
      "type": "function"
    },
    {
      "inputs": [],
      "name": "getDrInfo",
      "outputs": [
        {
          "internalType": "string",
          "name": "",
          "type": "string"
        }
      ],
      "stateMutability": "view",
      "type": "function",
      "constant": true
    },
    {
      "inputs": [
        {
          "internalType": "address",
          "name": "_id",
          "type": "address"
        }
      ],
      "name": "getDr",
      "outputs": [
        {
          "internalType": "string",
          "name": "",
          "type": "string"
        }
      ],
      "stateMutability": "view",
      "type": "function",
      "constant": true
    },
    {
      "inputs": [
        {
          "internalType": "address",
          "name": "id",
          "type": "address"
        }
      ],
      "name": "isDr",
      "outputs": [
        {
          "internalType": "string",
          "name": "",
          "type": "string"
        }
      ],
      "stateMutability": "view",
      "type": "function",
      "constant": true
    },
    {
      "inputs": [
        {
          "internalType": "address",
          "name": "id",
          "type": "address"
        }
      ],
      "name": "isDoctor",
      "outputs": [
        {
          "internalType": "int256",
          "name": "",
          "type": "int256"
        }
      ],
      "stateMutability": "view",
      "type": "function",
      "constant": true
    },
    {
      "inputs": [],
      "name": "getAllDrs",
      "outputs": [
        {
          "internalType": "address[]",
          "name": "",
          "type": "address[]"
        }
      ],
      "stateMutability": "view",
      "type": "function",
      "constant": true
    },
    {
      "inputs": [],
      "name": "getDoctorCount",
      "outputs": [
        {
          "internalType": "uint256",
          "name": "",
          "type": "uint256"
        }
      ],
      "stateMutability": "view",
      "type": "function",
      "constant": true
    },
    {
      "inputs": [
        {
          "internalType": "address",
          "name": "id",
          "type": "address"
        }
      ],
      "name": "isPat",
      "outputs": [
        {
          "internalType": "string",
          "name": "",
          "type": "string"
        }
      ],
      "stateMutability": "view",
      "type": "function",
      "constant": true
    },
    {
      "inputs": [
        {
          "internalType": "address",
          "name": "_newpatient",
          "type": "address"
        }
      ],
      "name": "addPatient",
      "outputs": [],
      "stateMutability": "nonpayable",
      "type": "function"
    },
    {
      "inputs": [
        {
          "internalType": "address",
          "name": "_patid",
          "type": "address"
        }
      ],
      "name": "addRec",
      "outputs": [],
      "stateMutability": "nonpayable",
      "type": "function"
    },
    {
      "inputs": [
        {
          "internalType": "address",
          "name": "_patid",
          "type": "address"
        }
      ],
      "name": "viewPatRec",
      "outputs": [],
      "stateMutability": "nonpayable",
      "type": "function"
    },
    {
      "inputs": [
        {
          "internalType": "address",
          "name": "_accid",
          "type": "address"
        }
      ],
      "name": "delPat",
      "outputs": [],
      "stateMutability": "nonpayable",
      "type": "function"
    },
    {
      "inputs": [],
      "name": "get",
      "outputs": [
        {
          "internalType": "address",
          "name": "",
          "type": "address"
        }
      ],
      "stateMutability": "view",
      "type": "function",
      "constant": true
    },
    {
      "inputs": [],
      "name": "get_patid",
      "outputs": [
        {
          "internalType": "address",
          "name": "",
          "type": "address"
        }
      ],
      "stateMutability": "view",
      "type": "function",
      "constant": true
    },
    {
      "inputs": [
        {
          "internalType": "address",
          "name": "iD",
          "type": "address"
        }
      ],
      "name": "getPatInfo",
      "outputs": [
        {
          "internalType": "string",
          "name": "",
          "type": "string"
        }
      ],
      "stateMutability": "view",
      "type": "function",
      "constant": true
    },
    {
      "inputs": [
        {
          "internalType": "address",
          "name": "pat_id",
          "type": "address"
        },
        {
          "internalType": "string",
          "name": "_patInfoHash",
          "type": "string"
        }
      ],
      "name": "addPatInfo",
      "outputs": [],
      "stateMutability": "nonpayable",
      "type": "function"
    },
    {
      "inputs": [
        {
          "internalType": "string",
          "name": "_recHash",
          "type": "string"
        },
        {
          "internalType": "address",
          "name": "_pat_id",
          "type": "address"
        }
      ],
      "name": "addMedRecord",
      "outputs": [],
      "stateMutability": "nonpayable",
      "type": "function"
    },
    {
      "inputs": [],
      "name": "viewMedRec",
      "outputs": [
        {
          "internalType": "string",
          "name": "",
          "type": "string"
        }
      ],
      "stateMutability": "view",
      "type": "function",
      "constant": true
    }
  ],
  "bytecode": "0x608060405234801561001057600080fd5b50600a8054336001600160a01b0319909116811790915561003e90600090610043602090811b610c3017901c565b610147565b61004d82826100c4565b1561009f5760405162461bcd60e51b815260206004820152601f60248201527f526f6c65733a206163636f756e7420616c72656164792068617320726f6c650060448201526064015b60405180910390fd5b6001600160a01b0316600090815260209190915260409020805460ff19166001179055565b60006001600160a01b0382166101275760405162461bcd60e51b815260206004820152602260248201527f526f6c65733a206163636f756e7420697320746865207a65726f206164647265604482015261737360f01b6064820152608401610096565b506001600160a01b03166000908152602091909152604090205460ff1690565b611162806101566000396000f3fe608060405234801561001057600080fd5b50600436106101a95760003560e01c80636d4ce63c116100f9578063be95687311610097578063d2fce6cc11610071578063d2fce6cc14610386578063d4fd45c414610399578063ddf8f98b146103ac578063f1a1d7d5146103bd57600080fd5b8063be9568731461034d578063c979783f14610360578063cc5729141461037357600080fd5b806379111c1c116100d357806379111c1c1461030d57806392bed5ce1461031f578063996440c6146103275780639fd067741461033a57600080fd5b80636d4ce63c146102e35780636e9960c3146102e9578063720d5b4b146102fa57600080fd5b80632f4a4dcb11610166578063538b30ae11610140578063538b30ae1461027a57806358dae14f1461028d578063657a2512146102a05780636d263ceb146102d057600080fd5b80632f4a4dcb146102415780634780468f146102545780634fe6c9501461026757600080fd5b8063047f66c3146101ae57806311f67285146101c357806313d65d3a146101d657806317335a95146101f45780631c7fb129146102075780631da3e2dc1461022c575b600080fd5b6101c16101bc366004610e66565b6103d0565b005b6101c16101d1366004610f2b565b6103f2565b6101de6104ca565b6040516101eb9190610f79565b60405180910390f35b6101c1610202366004610f2b565b610576565b600c546001600160a01b03165b6040516001600160a01b0390911681526020016101eb565b610234610643565b6040516101eb9190610fce565b61021461024f36600461101b565b6106a4565b6101c1610262366004610e66565b6106ce565b6101c1610275366004610e66565b610708565b6101c1610288366004610f2b565b61073f565b6101de61029b36600461101b565b6107b9565b6101c16102ae366004610e66565b600c80546001600160a01b0319166001600160a01b0392909216919091179055565b6101c16102de366004610e66565b610865565b33610214565b600a546001600160a01b0316610214565b6101de610308366004610e66565b61089c565b6006545b6040519081526020016101eb565b6101de610905565b610311610335366004610e66565b61092e565b6101c1610348366004610e66565b610997565b6101de61035b366004610e66565b6109ce565b61021461036e36600461101b565b6109db565b6101de610381366004610e66565b6109eb565b6101c1610394366004610e66565b610a97565b6101de6103a7366004610e66565b610b3c565b600b546001600160a01b0316610214565b6101c16103cb366004611034565b610b63565b600b80546001600160a01b0319166001600160a01b0392909216919091179055565b6103fd600033610cac565b15156001146104535760405162461bcd60e51b815260206004820152601b60248201527f4f6e6c7920796f752043616e2041646420796f757220696e666f20000000000060448201526064015b60405180910390fd5b33600090815260046020908152604090912082519091610477918391850190610db1565b50600780546001810182556000919091527fa66cc928b5edb82af9bd49922954155ab7b0942694bea4ce44661d9a8736c6880180546001600160a01b031916331790556104c5600284610c30565b505050565b600b546001600160a01b031660009081526005602052604090208054606091906104f390611082565b80601f016020809104026020016040519081016040528092919081815260200182805461051f90611082565b801561056c5780601f106105415761010080835404028352916020019161056c565b820191906000526020600020905b81548152906001019060200180831161054f57829003601f168201915b5050505050905090565b610581600033610cac565b6105bf5760405162461bcd60e51b815260206004820152600f60248201526e27b7363c902337b9102237b1ba37b960891b604482015260640161044a565b6001600160a01b0382166000908152600360209081526040909120825190916105ec918391850190610db1565b5060068054600180820183556000929092527ff652222313e28459528d920b65115c16c04f3efc82aaedc97be59f3f377c0d3f0180546001600160a01b0319166001600160a01b0386161790556104c59084610c30565b6060600680548060200260200160405190810160405280929190818152602001828054801561056c57602002820191906000526020600020905b81546001600160a01b0316815260019091019060200180831161067d575050505050905090565b600781815481106106b457600080fd5b6000918252602090912001546001600160a01b0316905081565b6106d9600033610cac565b15156001146106fa5760405162461bcd60e51b815260040161044a906110bd565b610705600182610c30565b50565b610713600033610cac565b15156001146107345760405162461bcd60e51b815260040161044a906110bd565b610705600182610d2f565b33600090815260036020908152604090912082519091610763918391850190610db1565b5050600680546001810182556000919091527ff652222313e28459528d920b65115c16c04f3efc82aaedc97be59f3f377c0d3f0180546001600160a01b0319166001600160a01b03939093169290921790915550565b600881815481106107c957600080fd5b9060005260206000200160009150905080546107e490611082565b80601f016020809104026020016040519081016040528092919081815260200182805461081090611082565b801561085d5780601f106108325761010080835404028352916020019161085d565b820191906000526020600020905b81548152906001019060200180831161084057829003601f168201915b505050505081565b610870600033610cac565b15156001146108915760405162461bcd60e51b815260040161044a906110bd565b610705600282610c30565b60606108a9600283610cac565b6108e85760405162461bcd60e51b815260206004820152601060248201526f4f6e6c7920666f7220446f63746f727360801b604482015260640161044a565b50506040805180820190915260018152603160f81b602082015290565b600c546001600160a01b031660009081526003602052604090208054606091906104f390611082565b6000805b600654811161098e57826001600160a01b031660068281548110610958576109586110ed565b6000918252602090912001546001600160a01b0316141561097c5750600192915050565b8061098681611103565b915050610932565b50600092915050565b6109a2600033610cac565b15156001146109c35760405162461bcd60e51b815260040161044a906110bd565b610705600282610d2f565b60606108a9600183610cac565b600681815481106106b457600080fd5b6001600160a01b0381166000908152600460205260409020805460609190610a1290611082565b80601f0160208091040260200160405190810160405280929190818152602001828054610a3e90611082565b8015610a8b5780601f10610a6057610100808354040283529160200191610a8b565b820191906000526020600020905b815481529060010190602001808311610a6e57829003601f168201915b50505050509050919050565b610aa2600133610cac565b1515600114610aed5760405162461bcd60e51b815260206004820152601760248201527613db9b1e48111bd8dd1bdc8810d85b88111bc8151a185d604a1b604482015260640161044a565b610af8600282610cac565b15156001146103d05760405162461bcd60e51b815260206004820152601060248201526f1a5cc81b9bdd08184814185d1a595b9d60821b604482015260640161044a565b6001600160a01b0381166000908152600360205260409020805460609190610a1290611082565b610b6e600133610cac565b1515600114610bb95760405162461bcd60e51b815260206004820152601760248201527613db9b1e48111bd8dd1bdc8810d85b88111bc8151a185d604a1b604482015260640161044a565b6001600160a01b038116600090815260056020908152604090912083519091610be6918391860190610db1565b50600880546001810182556000919091528351610c2a917ff3f7a9fe364faab93b216da50a3214154f22a0a2b415b23a84c8169e8b636ee301906020860190610db1565b50505050565b610c3a8282610cac565b15610c875760405162461bcd60e51b815260206004820152601f60248201527f526f6c65733a206163636f756e7420616c72656164792068617320726f6c6500604482015260640161044a565b6001600160a01b0316600090815260209190915260409020805460ff19166001179055565b60006001600160a01b038216610d0f5760405162461bcd60e51b815260206004820152602260248201527f526f6c65733a206163636f756e7420697320746865207a65726f206164647265604482015261737360f01b606482015260840161044a565b506001600160a01b03166000908152602091909152604090205460ff1690565b610d398282610cac565b610d8f5760405162461bcd60e51b815260206004820152602160248201527f526f6c65733a206163636f756e7420646f6573206e6f74206861766520726f6c6044820152606560f81b606482015260840161044a565b6001600160a01b0316600090815260209190915260409020805460ff19169055565b828054610dbd90611082565b90600052602060002090601f016020900481019282610ddf5760008555610e25565b82601f10610df857805160ff1916838001178555610e25565b82800160010185558215610e25579182015b82811115610e25578251825591602001919060010190610e0a565b50610e31929150610e35565b5090565b5b80821115610e315760008155600101610e36565b80356001600160a01b0381168114610e6157600080fd5b919050565b600060208284031215610e7857600080fd5b610e8182610e4a565b9392505050565b634e487b7160e01b600052604160045260246000fd5b600082601f830112610eaf57600080fd5b813567ffffffffffffffff80821115610eca57610eca610e88565b604051601f8301601f19908116603f01168101908282118183101715610ef257610ef2610e88565b81604052838152866020858801011115610f0b57600080fd5b836020870160208301376000602085830101528094505050505092915050565b60008060408385031215610f3e57600080fd5b610f4783610e4a565b9150602083013567ffffffffffffffff811115610f6357600080fd5b610f6f85828601610e9e565b9150509250929050565b600060208083528351808285015260005b81811015610fa657858101830151858201604001528201610f8a565b81811115610fb8576000604083870101525b50601f01601f1916929092016040019392505050565b6020808252825182820181905260009190848201906040850190845b8181101561100f5783516001600160a01b031683529284019291840191600101610fea565b50909695505050505050565b60006020828403121561102d57600080fd5b5035919050565b6000806040838503121561104757600080fd5b823567ffffffffffffffff81111561105e57600080fd5b61106a85828601610e9e565b92505061107960208401610e4a565b90509250929050565b600181811c9082168061109657607f821691505b602082108114156110b757634e487b7160e01b600052602260045260246000fd5b50919050565b60208082526016908201527513db9b1e4810591b5a5b8810d85b88111bc8151a185d60521b604082015260600190565b634e487b7160e01b600052603260045260246000fd5b600060001982141561112557634e487b7160e01b600052601160045260246000fd5b506001019056fea2646970667358221220cf43c5fb8be8aa85571d3d21f45851946c4b5888c94588ae803defa02218cc8064736f6c634300080b0033",
  "immutableReferences": {},
  "source": "// SPDX-License-Identifier: MIT\npragma solidity >= 0.4.21;\n\nimport './Roles.sol';\n\ncontract Contract{\n\n    using Roles for Roles.Role;\n\n    Roles.Role private admin;\n    Roles.Role private doctor;\n    Roles.Role private patient;\n\n    struct Doctor{\n        string drHash;\n    }\n\n    struct Patient{\n        string patHash;\n    }\n\n    struct MedRec{\n        string RecordHash;\n    }\n\n    mapping(address => Doctor) Doctors;\n    mapping(address => Patient) Patients;\n    mapping(address => MedRec) Records;\n\n    address[] public Dr_ids;\n    address[] public Patient_ids;\n    string[] public RecordHashes;\n\n    address accountId;\n    address admin_id;\n    address get_patient_id;\n    address get_dr_id;\n\n    constructor() {\n        admin_id = msg.sender;\n        admin.add(admin_id);\n    }\n\n    //get Admin\n\n    function getAdmin() public view returns(address){\n        return admin_id;\n    }\n\n    /*\n    \n        Doctor\n    \n    */\n    //Add Doctor\n\n    function addDrInfo(address dr_id, string memory _drInfo_hash) public{\n        require(admin.has(msg.sender), 'Only For Doctor');\n\n        Doctor storage drInfo = Doctors[dr_id];\n        drInfo.drHash = _drInfo_hash;\n        Dr_ids.push(dr_id);\n\n        doctor.add(dr_id);\n    }\n\n    function updateInfo(address dr_id, string memory _drInfo_hash) public{\n        Doctor storage drInfo = Doctors[msg.sender];\n        drInfo.drHash = _drInfo_hash;\n        Dr_ids.push(dr_id);\n    }\n\n    function addDoctor(address _newdr) external onlyAdmin() {\n        doctor.add(_newdr);\n    }\n\n    function delDr(address _accid) external onlyAdmin(){\n        doctor.remove(_accid);\n    }\n\n    function get_drtid() public view returns(address){\n        return get_dr_id;\n    }\n\n    function search(address _id)public{\n        get_dr_id = _id;\n    }\n\n    function getDrInfo() public view returns(string memory){\n        return (Doctors[get_dr_id].drHash);\n    }\n\n    function getDr(address _id) public view returns(string memory){\n        return (Doctors[_id].drHash);\n    }\n\n    function isDr(address id) public view returns(string memory){\n        require(doctor.has(id), \"Only for Doctors\");\n        return \"1\";\n    }\n\n    function isDoctor(address id) public view returns(int){\n        // require(doctor.has(msg.sender), \"Only for Doctors\");\n        for(uint i=0;i<=Dr_ids.length;i++){\n            if(Dr_ids[i] == id){\n                return 1;\n            }\n        }\n        return 0;\n    }\n    \n    function getAllDrs() public view returns(address[] memory){\n        return(Dr_ids);\n    }\n\n    function getDoctorCount() public view returns(uint){\n        return(Dr_ids.length);\n    }\n\n    // function getAllDrDetails() onlyAdmin() public view returns(string[] memory) {\n    //     drIds = \n    //     return ['']\n    // }\n    /*\n            Patient\n    \n    */\n    function isPat(address id) public view returns(string memory){\n        require(patient.has(id), \"Only for Doctors\");\n        return \"1\";\n    }\n    function addPatient(address _newpatient) external onlyAdmin() {\n        patient.add(_newpatient);\n    }\n\n    function addRec(address _patid) external onlyDoctor() {\n        require(patient.has(_patid) == true, \"is not a Patient\");\n        get_patient_id = _patid;\n    }\n    function viewPatRec(address _patid) public{\n        get_patient_id = _patid;\n    }\n\n    function delPat(address _accid) external onlyAdmin(){\n        patient.remove(_accid);\n    }\n    function get() public view  returns(address){\n        return msg.sender;\n    }\n    function get_patid() public view returns(address){\n        return get_patient_id;\n    }\n    function getPatInfo(address iD)public view returns(string memory){\n        return (Patients[iD].patHash);\n    }\n    function addPatInfo(address pat_id, string memory _patInfoHash) public {\n        require(admin.has(msg.sender) == true, 'Only you Can Add your info ');\n        Patient storage patInfo = Patients[msg.sender];\n        patInfo.patHash = _patInfoHash;\n        Patient_ids.push(msg.sender);\n\n        patient.add(pat_id);\n    }\n\n    /*\n    \n        Medical Records\n    \n    \n    */\n\n    function addMedRecord(string memory _recHash, address _pat_id) public{\n        require(doctor.has(msg.sender) == true, 'Only Doctor Can Do That');\n\n        MedRec storage record = Records[_pat_id];\n        record.RecordHash = _recHash;\n        RecordHashes.push(_recHash);\n    }\n\n    function viewMedRec()public view returns(string memory){\n        return (Records[get_patient_id].RecordHash);\n    }\n\n    /*\n        Modifiers\n    */\n\n\n    modifier onlyAdmin(){\n        require(admin.has(msg.sender) == true, 'Only Admin Can Do That');\n        _;\n    }\n    modifier onlyDoctor(){\n        require(doctor.has(msg.sender) == true, 'Only Doctor Can Do That');\n        _;\n    }\n    modifier onlyPatient(){\n        require(patient.has(msg.sender) == true, 'Only Admin Can Do That');\n        _;\n    }\n\n}",
  "sourcePath": "/home/shamil/Desktop/EHR_BLOCKCHAIN/ehr-2.0/contracts/Contract.sol",
  "compiler": {
    "name": "solc",
    "version": "0.8.11+commit.d7f03943.Emscripten.clang"
  },
  "schemaVersion": "3.4.4",
  "updatedAt": "2022-01-25T22:14:10.486Z",
  "networkType": "ethereum",
  "devdoc": {
    "kind": "dev",
    "methods": {},
    "version": 1
  },
  "userdoc": {
    "kind": "user",
    "methods": {},
    "version": 1
  }
}